S00D00004170705F35302E73313902
S21402000000600020D500020043010200491E0200E3
S21402001000000000000000000000000000000000D9
S214020020000000000000000000000000470102007F
S2140200300000000000000000490102004B0102001F
S2140200404F010200570102005F0102006701020031
S2140200506F010200770102007F01020087010200A1
S2140200608F010200970102009F010200A701020011
S214020070B51E0200B7010200BF010200B10702006E
S214020080CF010200D7010200DF010200E7010200F1
S214020090EF010200F7010200FF0102000702020060
S2140200A00F020200170202001F02020027020200CD
S2140200B02F020200370202001D0A0200790A02001D
S2140200C07C44020080E0FF1F0400000084E0FF1F63
S2140200D0CC01000010B572B602F080F80D4B07E0B6
S2140200E0186859681C000C349A6800F019F8230046
S2140200F0094A9342F4D306E018681C00083459688B
S21402010000F017F82300054A9342F5D362B603F0CF
S2140201104FFFFEE7C0000200CC000200D40002003F
S21402012010B5002302E010C810C104339342FAD37C
S21402013010BD002302E0002204C004338B42FAD32F
S2140201407047FEE7FEE7FEE7FEE7FEE7FEE710B5CE
S214020150FFF7FCFF10BD10B5FFF7F8FF10BD10B596
S214020160FFF7F4FF10BD10B5FFF7F0FF10BD10B596
S214020170FFF7ECFF10BD10B5FFF7E8FF10BD10B596
S214020180FFF7E4FF10BD10B5FFF7E0FF10BD10B596
S214020190FFF7DCFF10BD10B5FFF7D8FF10BD10B596
S2140201A0FFF7D4FF10BD10B5FFF7D0FF10BD10B596
S2140201B0FFF7CCFF10BD10B5FFF7C8FF10BD10B596
S2140201C0FFF7C4FF10BD10B5FFF7C0FF10BD10B596
S2140201D0FFF7BCFF10BD10B5FFF7B8FF10BD10B596
S2140201E0FFF7B4FF10BD10B5FFF7B0FF10BD10B596
S2140201F0FFF7ACFF10BD10B5FFF7A8FF10BD10B596
S214020200FFF7A4FF10BD10B5FFF7A0FF10BD10B595
S214020210FFF79CFF10BD10B5FFF798FF10BD10B595
S214020220FFF794FF10BD10B5FFF790FF10BD10B595
S214020230FFF78CFF10BD10B5FFF788FF10BD10B595
S214020240FFF784FF10BD10B5FFF780FF10BDFFFF5C
S214020250FFFFFFFFFFFFFFFFFFFFFFFFFFFFFFFFA7
S214020260FFFFFFFFFFFFFFFFFFFFFFFFFFFFFFFF97
S214020270FFFFFFFFFFFFFFFFFFFFFFFFFFFFFFFF87
S214020280FFFFFFFFFFFFFFFFFFFFFFFFFFFFFFFF77
S214020290FFFFFFFFFFFFFFFFFFFFFFFFFFFFFFFF67
S2140202A0FFFFFFFFFFFFFFFFFFFFFFFFFFFFFFFF57
S2140202B0FFFFFFFFFFFFFFFFFFFFFFFFFFFFFFFF47
S2140202C0FFFFFFFFFFFFFFFFFFFFFFFFFFFFFFFF37
S2140202D0FFFFFFFFFFFFFFFFFFFFFFFFFFFFFFFF27
S2140202E0FFFFFFFFFFFFFFFFFFFFFFFFFFFFFFFF17
S2140202F0FFFFFFFFFFFFFFFFFFFFFFFFFFFFFFFF07
S214020300FFFFFFFFFFFFFFFFFFFFFFFFFFFFFFFFF6
S214020310FFFFFFFFFFFFFFFFFFFFFFFFFFFFFFFFE6
S214020320FFFFFFFFFFFFFFFFFFFFFFFFFFFFFFFFD6
S214020330FFFFFFFFFFFFFFFFFFFFFFFFFFFFFFFFC6
S214020340FFFFFFFFFFFFFFFFFFFFFFFFFFFFFFFFB6
S214020350FFFFFFFFFFFFFFFFFFFFFFFFFFFFFFFFA6
S214020360FFFFFFFFFFFFFFFFFFFFFFFFFFFFFFFF96
S214020370FFFFFFFFFFFFFFFFFFFFFFFFFFFFFFFF86
S214020380FFFFFFFFFFFFFFFFFFFFFFFFFFFFFFFF76
S214020390FFFFFFFFFFFFFFFFFFFFFFFFFFFFFFFF66
S2140203A0FFFFFFFFFFFFFFFFFFFFFFFFFFFFFFFF56
S2140203B0FFFFFFFFFFFFFFFFFFFFFFFFFFFFFFFF46
S2140203C0FFFFFFFFFFFFFFFFFFFFFFFFFFFFFFFF36
S2140203D0FFFFFFFFFFFFFFFFFFFFFFFFFFFFFFFF26
S2140203E0FFFFFFFFFFFFFFFFFFFFFFFFFFFFFFFF16
S2140203F0FFFFFFFFFFFFFFFFFFFFFFFFFFFFFFFF06
S214020400FFFFFFFFFFFFFFFFFFFFFFFFFEFFFFFFF6
S214020410B0B592B000AF00F0A7F855231A004749CE
S2140204203B1D180001F0F2FC3B1D002200211800C3
S21402043003F07FFD424B1A6880235B0213404DD0C7
S214020440404B1A220021180003F08FF93E257C1932
S2140204503C4B1A220021180000F086F90300238084
S2140204607B1900229B5E180003F0A6FE031C364989
S214020470181C02F0BBFE031C3449181C02F04EFE88
S214020480031CBB6300237B640BE07B6C5A1C304B63
S2140204909200D1582E4B7A6C9200D1507B6C01336D
S2140204A07B647B6C082BF0D92A4B191CB86B02F0C4
S2140204B00FFF031C1A1C284B191C101C02F096FE78
S2140204C0031C191C254802F003FF031C1A1C204BB0
S2140204D05A62234B0521180003F0EDF901F0FAFDEC
S2140204E0031EA7D001F046FE03001A0037217B1830
S2140204F01A7055227B181B7893429BD100233B64CB
S21402050015E0134B3A6C9200D358181C02F0CCFF3D
S21402051002000B001349381D01F078FC3B1D002237
S2140205200021180003F005FD3B6C01333B643B6C75
S214020530092BE6D90A2001F0D7FD7BE7A04202008C
S21402054010E000E000B0034000FE7F4700404E454A
S21402055084E0FF1F00003344295CCF3F0000C841FF
S214020560C0F00F40B842020090B589B000AF00F06C
S21402057051F81C217B1800221A607B1801221A707F
S2140205807B1820481A00052100F0F6F918217B187E
S21402059001221A707B1800225A707B181A481A0019
S2140205A0052103F039F914217B1800221A607B1802
S2140205B002221A707B1801225A700C007B1813480C
S2140205C01A00012100F0D8F93B1910481A0002213E
S2140205D000F0D2F901F0F2FC3B1D180010231A00BD
S2140205E0002103F0EBFC3B1D0322DA713B1D084A97
S2140205F01900100003F071F800F072F8C046BD460C
S21402060009B090BD00C00440C0F00F400090044006
S21402061000B0034080B500AF2C4B1B78DBB22B4AF0
S2140206203F210B40DBB21370284B1B78DBB2274A04
S21402063040210B43DBB21370244B5B78DBB2234AB8
S21402064001218B43DBB25370204B5B78DBB21F4A2F
S21402065001210B43DBB253701C4B1B7ADBB21B4AE5
S2140206600E218B43DBB21372184A184B127AD2B29F
S2140206701A72174A174BD35815491B011B09154AFC
S2140206808B50134A134BD3581149C0229205134379
S214020690104A8B500E4A0F4BD3580D490E4A134040
S2140206A00C4A8B500A4A0A490A4BD358094A8B50BD
S2140206B001F0A2FD064A094BD358054980221205CD
S2140206C01343064A8B50C046BD4680BD00400640D6
S2140206D00070044044100000FFFFF8FF3C100000CA
S2140206E080B500AF0A4B0B4A5A60094B00229A604B
S2140206F0074B1A68064B04210A431A60044B1A6811
S214020700034B01210A431A60C046BD4680BDC0465F
S21402071010E000E03F420F0080B582B000AF02005A
S214020720FB1D1A70FB1D1B787F2B09D8FB1D1B783F
S2140207301A001F231A40044B012191400A001A6036
S214020740C046BD4602B080BD00E100E080B582B082
S21402075000AF7860034B7A681A60C046BD4602B0A6
S21402076080BDC046ACE0FF1F80B582B000AF7860A7
S21402077008001100FB1C021C1A70BB1C0A1C1A7013
S214020780C046FB1C1A787B681100180002F063FF53
S214020790031EF6D0054AFB1C1B7804339B009B58AD
S2140207A01BB21800BD4602B080BDC04600B0034072
S2140207B080B500AF044B1B68002B02D0024B1B68AF
S2140207C09847C046BD4680BDACE0FF1F80B582B0EC
S2140207D000AF0200FB1D1A70FB1D1B787F2B09D889
S2140207E0FB1D1B781A001F231A40044B012191405F
S2140207F00A001A60C046BD4602B080BD00E100E0B5
S21402080080B582B000AF78607B68244A934209D1F3
S214020810234A244BD3582249802292001343214A6A
S2140208208B5036E07B68204A934209D11C4A1D4B06
S214020830D3581B498022D20013431A4A8B5028E011
S2140208407B681A4A934209D1154A164BD358144963
S214020850802212011343134A8B501AE07B68144A13
S214020860934209D10E4A0F4BD3580D4980225201AA
S21402087013430C4A8B500CE07B680E4A934208D115
S214020880074A084BD3580649802292011343054A69
S2140208908B50C046BD4602B080BDC04600900440A4
S2140208A0007004403810000000A0044000B004406D
S2140208B000C0044000D0044080B582B000AF78602B
S2140208C008001100FB1C021C1A70BB1C0A1C1A70C2
S2140208D0FB1C1A787B689200D358FA1C12780D49D2
S2140208E019407B689200D150FB1C1A787B689200F4
S2140208F0D158BB1C1B781A02E023DB001340FA1CFB
S214020900127819437B689200D150C046BD4602B0A9
S21402091080BDC046FFF8FFFF80B582B000AF7860AA
S21402092008001100FB1C021C1A70BB1C0A1C1A7061
S214020930FB1C1A787B689200D358FA1C12780D4971
S21402094019407B689200D150FB1C1A787B68920093
S214020950D158BB1C1B781A04F0231B031340FA1C45
S214020960127819437B689200D150C046BD4602B049
S21402097080BDC046FFFFF0FF90B585B000AFF860BF
S2140209807A600B243B190A1C1A70FB681800FFF7E2
S21402099037FF7B681A783B191978FB681800FFF74F
S2140209A08BFF7B685A783B191978FB68180002F0AF
S2140209B097FF7B689A783B191978FB68180002F053
S2140209C0DFFF7B681B78002B07D07B68DA783B1941
S2140209D01978FB681800FFF79FFF7B68DB78002B0F
S2140209E011D0FB680A4A934202D11E20FFF7EEFEA0
S2140209F0FB68084A934203D0FB68074A934202D137
S214020A001F20FFF7E3FEC046BD4605B090BDC046B8
S214020A100090044000B0044000C0044080B582B09C
S214020A2000AF00237B601BE07B68DBB2104A190034
S214020A30100002F0D2FF031E0FD07B68DBB20C4A16
S214020A401900100002F0E1FF0A4B1B68002B04D0CD
S214020A50084B1B687A68100098477B6801337B60F6
S214020A607B681F2BE0DDC046C046BD4602B080BD97
S214020A7000900440B0E0FF1F80B582B000AF0023B4
S214020A807B601BE07B68DBB2214A1900100002F093
S214020A90A4FF031E0FD07B68DBB21D4A19001000AC
S214020AA002F0B3FF1B4B1B68002B04D0194B1B68CC
S214020AB07A68100098477B6801337B607B681F2B3F
S214020AC0E0DD00233B601BE03B68DBB2124A190004
S214020AD0100002F082FF031E0FD03B68DBB20E4A04
S214020AE01900100002F091FF0C4B1B68002B04D07B
S214020AF00A4B1B683A68100098473B6801333B6014
S214020B003B681F2BE0DDC046C046BD4602B080BD36
S214020B1000B00440B4E0FF1F00C00440B8E0FF1F6E
S214020B20F0B59DB006AFF860B9607A603B6000230E
S214020B307B6500220023BA63FB633A6F7B6F386FD4
S214020B40796F02F02DFA031E12D13C687A68B968F2
S214020B50F8688023FB181B680393FB6F029303233A
S214020B600193BF4B0093230002F0E4FF030011E25F
S214020B7001225242BB4B386F796F02F031FA031EE4
S214020B8012D03C687A68B968F8688023FB181B683C
S214020B900393FB6F029304230193B34B009323004A
S214020BA002F0C8FF0300F5E101225242AF4B386F54
S214020BB0796F02F04FFA031E24D08023FB181B68BD
S214020BC00422134001D0AA4B00E0AA4B8022BA1896
S214020BD0126804210A4001D0042200E003223E6883
S214020BE07D68BC68F8688021791809680391F96FF6
S214020BF002910192009333002A00210002F09AFF2C
S214020C000300C7E100229C4B386F796F02F022FA8C
S214020C10031E07D10022994B386F796F02F0E0F974
S214020C20031E15D03D687C68B968F8688023FB18F7
S214020C301B680493FB6F0393BB6F02933A6F7B6F41
S214020C40009201932B00220000F0A8F90300A1E114
S214020C5053243B1900221A7000220023386F796F42
S214020C6002F0BEF9031E0CD03B1901221A703A6F2D
S214020C707B6F0020002101F0BDFF02000B003A67E7
S214020C807B678023FB181A688023DB0013400CD195
S214020C900623BB6709E07B6D5A1C7A651022BA18D8
S214020CA03021D154BB6F013BBB677B6D1F2B02D833
S214020CB0BB6F092BEFD8386F796F02F02DF903005E
S214020CC0FB64F86C03F036FA02000B00386F796F9B
S214020CD001F090FF02000B0010001900684ABB6F7B
S214020CE0DB00D3181A685B6801F008FE02000B00EE
S214020CF03A637B63386B796B02F036F90300BB64A8
S214020D00B86C03F023FA02000B00386B796B01F023
S214020D1071FF02000B00BA63FB630022594BB86BEB
S214020D20F96B02F097F9031E15D0BB6C0133BB6456
S214020D30B86C03F00BFA524ABB6FDB00D3181A6882
S214020D405B6802F0B7F9031E17D00023BB64FB6C86
S214020D500133FB6411E000224A4BB86BF96B02F0D8
S214020D603FF9031E09D1BB6C002B03D0BB6C0122DA
S214020D70134002D0BB6C0133BB64BB6F002B2FD178
S214020D80F86C03F0D7F902000B00386F796F01F0A8
S214020D9031FF02000B00BA63FB6301231C1C002216
S214020DA0384BB86BF96B02F01BF9031E01D1002316
S214020DB01C1CE3B201225340DBB2002B07D10022F7
S214020DC0304BB86BF96B02F045F9031E46D0FB6C4C
S214020DD00122134000D170E0FB6C0133FB646CE02F
S214020DE0BB6F7B641BE07B6C013B7B64BB6C0A21A4
S214020DF0180003F009F90B00DAB27B6D591C79650D
S214020E003032D1B21022BA18D154BB6C0A21180063
S214020E1003F0FAF80300BB64BB6C002B03D07B6DB7
S214020E201F2BE0D908E0C04606E07B6D5A1C7A65A7
S214020E301022BA183021D1547B6D1F2B04D87B6C3C
S214020E405A1E7A64002BF0D17B6D1F2B35D87B6D32
S214020E505A1C7A651022BA182E21D1542DE0C046AB
S214020E60C0420200FFFFEFFFC4420200FFFFEF7F17
S214020E70CC420200D442020065CDCD4165CDCDC143
S214020E80504202000000E03FFB6C0A21180003F00B
S214020E90B8F80B00DAB27B6D591C79653032D1B2E4
S214020EA01022BA18D154FB6C0A21180003F0A9F8D4
S214020EB00300FB64FB6C002B03D07B6D1F2BE3D976
S214020EC000E0C04680217B181B680222134023D113
S214020ED07B181B68012213401ED0FB6F002B14D018
S214020EE05323FB181B78002B04D17B181B680C229B
S214020EF013400AD0FB6F013BFB6706E07B6D5A1C72
S214020F007A651022BA183021D1547A6DFB6F9A4254
S214020F1002D27B6D1F2BF1D97B6D1F2B27D8532353
S214020F20FB181B78002B07D07B6D5A1C7A651022A3
S214020F30BA182D21D1541AE08023FB181B6804220C
S214020F40134007D07B6D5A1C7A651022BA182B21E3
S214020F50D1540CE08023FB181B680822134006D0ED
S214020F607B6D5A1C7A651022BA182021D1543C682F
S214020F707A68B968F8688023FB181B680393FB6FCE
S214020F8002937B6D01931023FB180093230002F05B
S214020F90D1FD03001800BD4617B0F0BDF0B5A7B0EE
S214020FA006AF78643964FA63BB639826BB191A687D
S214020FB05B68B9190868496801F0F2FF031E13D08E
S214020FC001225242DA4BB9190868496802F042F81F
S214020FD0031E09D101225242D64BB9190868496844
S214020FE001F0FEFF031E1BD0BD6BFC6B396C786CE8
S214020FF0A823FB181B680493A423FB181B680393FF
S214021000A023FB181B6802939823FB181A685B68D8
S214021010009201932B002200FFF782FD030072E28A
S2140210203B2338229B18DE190123FB730022002380
S214021030982179180868496801F0D2FF031E01D189
S2140210400023FB73FB7B33703B2338229B18DB1990
S2140210501B78002B0FD098217B181B683B609C23C3
S214021060FB181A6880231B0653407B603A687B682D
S21402107079180A604B60A823FB181A688023DB00E5
S214021080134003D10623A022BA1813609826BB1970
S2140210901A685B68BA64FB64BA6CFB6C1B0DBB62B5
S2140210A00023FB62BB6A5B055B0DA34A944663445E
S2140210B0FB66BA6CFB6C00211000884304001B031D
S2140210C01D0B002323433B629C4B2B437B623B6AF4
S2140210D07C6ABB64FC64F86E03F02CF8984A994B61
S2140210E001F00CFC02000B0010001900964A974B08
S2140210F001F06AFE02000B0014001D00B86CF96CC9
S2140211000022934B01F076FD02000B00100019003E
S214021110904A914B01F0F2FB02000B0020002900DE
S21402112001F052FE02000B001000190001F0F4FE5E
S2140211300300FB67F86F02F0FDFF884A884B01F058
S214021140DDFB02000B00100019000022854B01F0A7
S2140211503BFE02000B001000190001F0DDFE03004A
S214021160FB66F86F02F0E6FF7F4A804B01F0C6FB93
S21402117002000B0014001D00F86E02F0DBFF7C4A32
S2140211807C4B01F0BBFB02000B002000290001F0A3
S21402119031FD02000B003A667B663A6E7B6E386E55
S2140211A0796E01F0ABFB02000B00BA65FB65FB6EC5
S2140211B0714A94466344BB61DB17FB61BB691B053E
S2140211C07B6100233B613B697C69BB64FC64BC6C4D
S2140211D0FD6C386E796E02000B0001F0F5FD020020
S2140211E00B00BA62FB623A6E7B6E00208021C90554
S2140211F001F000FD02000B003A627B6200225F4BA8
S214021200B86DF96D01F044FC02000B0010001900E5
S21402121000225B4B01F0D8FD02000B00B86DF96DA1
S21402122001F036FC02000B00100019000022554B9C
S21402123001F0CAFD02000B00B86DF96D01F028FC42
S21402124002000B00386A796A01F0BEFD02000B004C
S214021250B86AF96A01F01CFC02000B0010001900C3
S2140212600022364B01F0B0FD02000B0020002900E0
S21402127001F044FB02000B00BA64FB64BA6CFB6C20
S214021280B9190868496801F0ABFE031E0CD0FB6F63
S214021290013BFB67B86CF96C0022394B01F0F8FB96
S2140212A002000B00BA64FB64FB6F632B04DCFB6F6B
S2140212B0633301DB042300E00523BB67A823FB1886
S2140212C01A6880231B01134000D174E02E4A2F4B6C
S2140212D0982439190868496801F0ECFE031E59D0B3
S2140212E000222B4B39190868496801F079FE031E63
S2140212F050D0A0217B181B68FA6F9A4207DA7B1837
S2140213001A68FB6FD31A013B7A18136003E00023B6
S214021310A022BA181360A8217B181B688022D2006C
S21402132013437A1813600023BB670023FB6742E06F
S214021330FFFFEF7FFFFFEFFF01FCFFFF0000F03F24
S214021340FB799F501344D33FB3C8608B288AC63FAD
S2140213500000F83F61436F63A787D23F71A3790904
S2140213604F930A400000E03F1655B5BBB16B0240F2
S214021370EF39FAFE422EE63FFF03000000002C4043
S21402138000002440000018402D431CEBE2361A3FB2
S21402139080842E41A0217B181B68002B0BD0A8232B
S2140213A0FB181A688023DB00134004D07B181B68E6
S2140213B0013B7A181360A422BB181B687B67BB1814
S2140213C01A68BB6F9A4204D97A6FBB6FD31A7B67CF
S2140213D001E000237B67A823FB181B680222134048
S2140213E004D0BB6F002B01D000237B67FB6F002B62
S2140213F00CD0BA6CFB6C982439190868496801F05D
S21402140047FB02000B0039190A604B60FB6B7B65D9
S2140214103B2338229B18DB191B78002B0BD0982312
S214021420FB181B683B639C23FB181B688022120672
S2140214305A407A6305E09823FB185C681B683B6396
S2140214407C63A823FA181368314A1340BC6BFA6B04
S214021450396C786C04937B6F0393A0257D192B68F7
S21402146002933D6B7E6B009501962300FFF758FBB7
S2140214700300FB63BB6F002B44D0A823FB181B683A
S2140214802022134001D0452000E06520FA6B531C51
S214021490FB63BB6B396C7C6CA047FB6FDA179B183F
S2140214A053409C46FB6FDB0FDBB2BA6F013ABD6B53
S2140214B0FC6B396C786C0526059604920022039222
S2140214C00A2202920193634600932B00220002F046
S2140214D054FC0300FB63A823FB181B68022213407C
S2140214E010D007E0FA6B531CFB63BB6B396C7C6C49
S2140214F02020A047FA6B7B6DD31AA422BA18126872
S2140215009A42EFD8FB6B1800BD4621B0F0BDC0462C
S214021510FFF7FFFFF0B5C64600B5A6B00AAF786281
S2140215203962FA61BB610023FB653B6A002B01D07E
S21402153000F051FCAD4B7B6200F04DFCBB691B78A2
S214021540252B0DD0BB691878FA6D531CFB65FB6919
S214021550396A7C6AA047BB690133BB6100F03BFC79
S214021560BB690133BB610023FB66BB691B78203B6A
S214021570102B36D89A009E4BD3181B689F46FB6EDC
S21402158001221343FB66BB690133BB6101233B6641
S2140215902AE0FB6E02221343FB66BB690133BB6182
S2140215A001233B6620E0FB6E04221343FB66BB6905
S2140215B00133BB6101233B6616E0FB6E0822134330
S2140215C0FB66BB690133BB6101233B660CE0FB6E25
S2140215D010221343FB66BB690133BB6101233B66E2
S2140215E002E000233B66C0463B6E002BBDD10023C3
S2140215F0BB66BB691B78180002F060FA031E07D0B0
S2140216001823FB18180002F072FA0300BB661CE0EF
S214021610BB691B782A2B18D18823FB181B681A1D56
S214021620882179180A601B68BB64BB6C002B07DA3A
S214021630FB6E02221343FB66BB6C5B42BB6601E099
S214021640BB6CBB66BB690133BB6100237B66BB69AF
S2140216501B782E2B2BD1FB6E8022D2001343FB6607
S214021660BB690133BB61BB691B78180002F026FA1E
S214021670031E07D01823FB18180002F038FA0300DE
S2140216807B6614E0BB691B782A2B10D18823FB18D3
S2140216901B681A1D882179180A601B687B647B6C9C
S2140216A0002B00DA00237B66BB690133BB61BB6992
S2140216B01B78683B122B47D89A004E4BD3181B68F0
S2140216C09F46FB6E802252001343FB66BB690133C2
S2140216D0BB61BB691B786C2B38D1FB6E80229200F3
S2140216E01343FB66BB690133BB612FE0FB6E8022AE
S2140216F01343FB66BB690133BB61BB691B78682B6E
S21402170026D1FB6E40221343FB66BB690133BB61E5
S2140217101EE0FB6E802252001343FB66BB69013358
S214021720BB6116E0FB6E802292001343FB66BB6928
S2140217300133BB610DE0FB6E802252001343FB6651
S214021740BB690133BB6104E0C04602E0C04600E06C
S214021750C046BB691B78672B28DC252B1DDA2DE3D8
S214021760693B01229A401300234A1A40511E8A41BD
S214021770D2B2002A20D180221A40511E8A41D2B209
S214021780002A00D0B5E28022D20013405A1E9341AE
S214021790DBB2002B00D046E210E3253B422B00D9F9
S2140217A00CE39A00154BD3181B689F46782B00DD76
S2140217B004E3692BD4DA01E3BB691B78782B03D0E8
S2140217C0BB691B78582B02D11023BB651EE0BB6990
S2140217D01B786F2B02D10823BB6517E0BB691B7809
S2140217E0622B0DD10223BB6510E0C0466B3A0200A5
S2140217F0D84202001C4302004190000068430200E7
S2140218000A23BB65FB6E10229343FB66BB691B78FB
S214021810582B03D1FB6E20221343FB66BB691B7851
S214021820692B07D0BB691B78642B03D0FB6E0C2296
S2140218309343FB66FA6E8023DB00134003D0FB6EF5
S21402184001229343FB66BB691B78692B04D0BB69F4
S2140218501B78642B00D0AFE0FA6E80239B00134007
S2140218603DD08823FB181B680733072293431A00D0
S2140218700832882179180A601A685B68BA62FB62C5
S214021880BA6AFB6A002B05DA00200021801A994109
S21402189002000B0010001900FB6ADB0FDAB2BB6D08
S2140218A03B6100237B61FB699C46FE6D3D6A7B6A59
S2140218B09846FB6E0893BB6E07937B6E06933B6956
S2140218C07C6904930594029200900191634632006B
S2140218D02900404602F0BAFA0300FB65FAE0FA6E07
S2140218E080235B00134025D08823FB181B681A1D33
S2140218F0882179180A601B687B637B6BDA179B1852
S21402190053401E007B6BDB0FDAB2FD69FC6D396A51
S214021910786AFB6E0593BB6E04937B6E0393BB6D76
S2140219200293019200962B00220002F026FA030090
S214021930FB65CFE0FB6E4022134009D08823FB18DC
S2140219401B681A1D882179180A601B68DBB215E02D
S214021950FB6E8022134009D08823FB181B681A1DD1
S214021960882179180A601B681BB207E08823FB18D7
S2140219701B681A1D882179180A601B68BB63BB6B3B
S214021980DA179B1853401E00BB6BDB0FDAB2FD69F9
S214021990FC6D396A786AFB6E0593BB6E04937B6EA8
S2140219A00393BB6D0293019200962B00220002F075
S2140219B0E4F90300FB658DE0FA6E80239B0013407A
S2140219C02BD08823FB181B680733072293431A0081
S2140219D00832882179180A6018685968BB6DBB609E
S2140219E00023FB60FE69FA6D3D6A7B6A9C46FB6ECD
S2140219F00893BB6E07937B6E0693BB68FC680493E2
S214021A00059400230293009001913300290060465A
S214021A1002F01CFA0300FB655CE0FA6E80235B00B2
S214021A2013401DD08823FB181B681A1D88217918BD
S214021A300A601B68FD69FC6D396A786AFA6E05925F
S214021A40BA6E04927A6E0392BA6D029200220192E4
S214021A5000932B00220002F090F90300FB6539E0A8
S214021A60FB6E4022134009D08823FB181B681A1D00
S214021A70882179180A601B68DBB215E0FB6E8022AB
S214021A80134009D08823FB181B681A1D8821791871
S214021A900A601B689BB207E08823FB181B681A1DA6
S214021AA0882179180A601B68FB63FC69FA6D396A3B
S214021AB0786AFB6E0593BB6E04937B6E0393BB6DD5
S214021AC0029300230193FB6B0093230002F055F967
S214021AD00300FB65BB690133BB617CE1BB691B7814
S214021AE0462B03D1FB6E20221343FB668823FB188A
S214021AF01B680733072293431A0008328821791895
S214021B000A601A685B68FE69FD6D3C6A786AF96E5F
S214021B100491B96E0391796E02910092019333009B
S214021B202A002100FEF7FCFF0300FB65BB690133B8
S214021B30BB6150E1BB691B78672B03D0BB691B787E
S214021B40472B04D1FB6E802212011343FB66BB694E
S214021B501B78452B03D0BB691B78472B03D1FB6E42
S214021B6020221343FB668823FB181B6807330722D1
S214021B7093431A000832882179180A601A685B684B
S214021B80FE69FD6D3C6A786AF96E0491B96E03913E
S214021B90796E02910092019333002A002100FFF72A
S214021BA0FDF90300FB65BB690133BB6113E1012349
S214021BB07B65FB6E022213400ED107E0FA6D531CC2
S214021BC0FB65FB69396A7C6A2020A0477B6D5A1C3C
S214021BD07A65BA6E9A42F1D88823FB181B681A1DDA
S214021BE0882179180A601B68D8B2FA6D531CFB6507
S214021BF0FB69396A7C6AA047FB6E022213400ED04C
S214021C0007E0FA6D531CFB65FB69396A7C6A202083
S214021C10A0477B6D5A1C7A65BA6E9A42F1D8BB69A8
S214021C200133BB61D7E08823FB181B681A1D882185
S214021C3079180A601B683B657B6E002B01D07B6EB1
S214021C4001E001235B423A6D1900100001F01BFF10
S214021C500300FB64FA6E8023DB00134005D0FA6CA7
S214021C607B6E934200D91300FB64FB6E0222134084
S214021C701AD107E0FA6D531CFB65FB69396A7C6A68
S214021C802020A047FB6C5A1CFA64BA6E9A42F1D81E
S214021C900AE03B6D5A1C3A651878FA6D531CFB65D0
S214021CA0FB69396A7C6AA0473B6D1B78002B09D01A
S214021CB0FA6E8023DB001340EBD07B6E5A1E7A66E8
S214021CC0002BE6D1FB6E022213400ED007E0FA6D1F
S214021CD0531CFB65FB69396A7C6A2020A047FB6CB3
S214021CE05A1CFA64BA6E9A42F1D8BB690133BB61D8
S214021CF071E00823BB66FB6E21221343FB662B2191
S214021D001823CB18DB1900221A701823CB18DB19FC
S214021D101B78002B25D08823FB181B681A1D8821E8
S214021D2079180A601B683B6000237B60FD69FC6DC6
S214021D30396A786AFB6E0893BB6E07937B6E0693CE
S214021D401022002304920593002302933A687B68CC
S214021D50009201932B00220002F078F80300FB6544
S214021D601CE08823FB181B681A1D882179180A6054
S214021D701B681D00FC69FA6D396A786AFB6E05936A
S214021D80BB6E04937B6E039310230293002301938E
S214021D900095230001F0F1FF0300FB65BB690133E8
S214021DA0BB6118E0FA6D531CFB65FB69396A7C6AF5
S214021DB02520A047BB690133BB610CE0BB691878DC
S214021DC0FA6D531CFB65FB69396A7C6AA047BB69DE
S214021DD00133BB61C046BB691B78002B01D0FFF7FD
S214021DE0ADFBFA6DFB699A4202D3FB695A1E00E00C
S214021DF0FA6DFB69396A7C6A0020A047FB6D180001
S214021E00BD461CB080BCB846F0BDC0460EB490B508
S214021E1086B002AF78602023FB18BB60FC69012302
S214021E205A4279680748BB6800932300FFF772FBA3
S214021E300300FB60FB681800BD4604B090BC08BCFB
S214021E4003B018473B3A020004207146084202D00B
S214021E50EFF3098001E0EFF3088081690A88074BF7
S214021E609A4200D0FEE7023181610168012901D061
S214021E70002100E0202101607047C046ABBE000092
S214021E8080B582B000AF0200FB1D1A70FB1D1B78E6
S214021E907F2B09D8FB1D1B781A001F231A40044B00
S214021EA0012191400A001A60C046BD4602B080BDBC
S214021EB000E100E080B500AF3C4B1B79DBB21A00B4
S214021EC02023134036D03A4B68229B5A642B0BD100
S214021ED0384B01221A70354BDB78DBB2334A2021AD
S214021EE08B43DBB2D37025E0304A314B64215B5A18
S214021EF01900D379DAB22E4B5A542D4B64229B5AD0
S214021F00013399B22A4B64229952294B64229B5A76
S214021F10632B07D9264B64229B5A643B99B2244B07
S214021F2064229952224B68229B5A013399B2204B63
S214021F30682299521D4B1B79DBB25BB2002B32DA58
S214021F401D4B68229B5A002B08D1184BDB78DBB25C
S214021F50164A7F210B40DBB2D37024E0164B662272
S214021F609B5A1900114A144B5B5CD371124B6622C2
S214021F709B5A013399B2104B662299520E4B662237
S214021F809B5A632B07D90C4B66229B5A643B99B229
S214021F90094B66229952084B68229B5A013B99B21A
S214021FA0054B68229952C046BD4680BD00A0064039
S214021FB0BCE0FF1F4CE2FF1F28E1FF1F80B500AF09
S214021FC03E4B5B78DBB23D4A01210B43DBB25370DA
S214021FD03A4B1B78DBB2394A02210B43DBB2137051
S214021FE0364B1B7ADBB2354A0E218B43DBB21372B9
S214021FF0334A344BD35832498022D2001343314AF3
S2140220008B502F4A304BD3582D49304A13402E4A14
S2140220108B502B4A2C4BD3582949C0221205134306
S214022020294A8B502A4B1B78DBB2294A1F210B40C8
S214022030DBB21370264B05225A70254B9B7ADBB215
S2140220401F229343DBB2224A06210B43DBB2937272
S2140220501F4B9B78DBB21E4A02218B43DBB2937086
S2140220601B4B9B78DBB21A4A01218B43DBB293707F
S214022070174B1B78DBB2164A20210B40DBB21370DB
S214022080134BDB78DBB2124A04210B43DBB2D3706C
S2140220900F4BDB78DBB20E4A08210B43DBB2D37060
S2140220A00B4BDB78DBB20A4A20210B43DBB2D37040
S2140220B00C20FFF7E5FEC046BD4680BD0040064048
S2140220C0007004403410000004100000FFFFFFF30D
S2140220D000A0064080B500AF024B68229B5A18004B
S2140220E0BD4680BDBCE0FF1F80B584B000AF0200D5
S2140220F0FB1D1A700F23FB1800221A701B4B682256
S2140221009B5A632B26D8194B64229B5A1900174BED
S214022110FA1D12785A54154B64229B5A01336421D5
S214022120180001F071FF0B0099B2104B642299520D
S2140221300E4B68229B5A013399B20C4B6822995275
S2140221400B4BDB78DBB20A49802252421343DBB2E6
S214022150CB7003E00F23FB18FF221A700F23FB1825
S2140221601B781800BD4604B080BDC04628E1FF1F9C
S21402217000A0064080B582B000AF174B68229B5A7B
S214022180002B04D1BB1D012252421A801CE0124BC6
S21402219066229B5A1A00104B9A5CBB1D1A800E4B85
S2140221A066229B5A01336421180001F02DFF0B00B2
S2140221B099B2094B66229952074B68229B5A013BF9
S2140221C099B2054B68229952BB1D00229B5E1800ED
S2140221D0BD4602B080BDC046BCE0FF1F80B500AF62
S2140221E0044A88235B010021D15001F0DCFEC04680
S2140221F0BD4680BD0070044080B582B000AF894BFA
S2140222001B78DBB21A00C023134000D0C3E0854B14
S2140222105B79DBB21A004023134000D099E0814B71
S2140222201B78DBB21A00042313403AD17E4B7B6044
S2140222307C4B5B78DBB21A00302313401ED0794BFE
S2140222401B78DBB21A0038231340302B06D0382B0B
S21402225009D1BB1CC022D2001A8019E0BB1CA022E6
S214022260D2001A8014E06F4B1B78DBB2DB08072221
S214022270134020229A40BB1C1A8009E0694B1B7847
S214022280DBB2DB080722134001229A40BB1C1A80ED
S214022290BB1C1B881900786801F0B6FE03007B6041
S2140222A002E080231B027B605E4BDB78DBB21A0007
S2140222B0E0231340E02B47D000D99DE0C02B3ED050
S2140222C000D999E0A02B34D000D995E0802B2AD0F3
S2140222D000D991E0602B1FD000D98DE0402B14D09E
S2140222E000D989E0002B02D0202B07D084E07A6840
S2140222F013009B009B18DB017B607EE07A6813006C
S2140223009B009B181B027B6077E07A6813001B0118
S2140223109B1ADB017B6070E07A6813009B009B18B7
S2140223205B027B6069E07B68B722920053437B6066
S21402233063E07B68B722D20053437B605DE07B6834
S2140223403A4A53437B6058E07B68394A53437B6082
S21402235053E0344B1B79DBB21A001F2313409AB2A8
S214022360BB1C01321A80BB1C1B8819002E4801F0C8
S2140223704BFE03007B602B4B5B79DBB21A001F23FC
S21402238013409AB2BB1C18321A80BB1C1A887B6890
S21402239053437B6031E0234B1B78DBB21A00C02329
S2140223A01340402B1DD11F4B5B78DBB21A00012372
S2140223B0134003D180231B027B601EE0194B1B7A5D
S2140223C0DBB25B080722134001229A40BB1C1A802C
S2140223D0BB1C1B881900174801F016FE03007B6021
S2140223E00BE0104B1B78DBB21A00C0231340802B85
S2140223F013D10D4B7B6000E0C0460F4A0F4BD358FB
S2140224001B0F0F22134001331900786801F0FCFD00
S21402241003001A000A4B1A6000E0C046BD4602B02E
S21402242080BDC0460040064000127A0095080000B3
S214022430710B000000093D000070044044100000CB
S21402244080E0FF1F70B5184C18492200002000F0EB
S2140224505DF8802380225B0000212000D20000F07D
S2140224602FF8134C134D22002900012000F04EF8DD
S214022470802380225B0000212000D20000F020F89A
S2140224800D4B1B68022B0DDD0C4C2900220002208E
S21402249000F03CF880238022002120005B00D2005E
S2140224A000F00EF870BDC04698E1FF1F78440200A7
S2140224B0D4E1FF1F7A4402007444020010E2FF1FB8
S2140224C0F0B5C56804000120AE070CD0802080005D
S2140224D0824213D08020C000824205D08020400075
S2140224E082420BD0FF38F0BD210001232431154370
S2140224F0002021612160E361E560F4E7024F5E1E81
S2140225000120BE42F3D9EEE7FEFFFF00F7B50D004D
S21402251001901000140000F033F82B78722B1CD0B8
S214022520772B1DD0612B26D1144A593B0220691CF9
S214022530032784460426012508782B2813D0622810
S21402254016D0E260019A62611B0704D502220021BE
S214022550200000F063F82000FEBD00230122E5E71C
S21402256004230222E2E760463A4303430131E3E7EB
S21402257032432B43FAE70024EDE7C0460280000010
S214022580F0B5C56804004769066989B0AB0720D074
S2140225902B0716D400F022F8380001F045FE2B0572
S2140225A002D5300001F017FD0B4BAD0DAD059D4277
S2140225B007D120226846216A01F045FE684601F0EE
S2140225C001FD3C220021200001F0F8FC002009B0A9
S2140225D0F0BD01204042FAE7000080ADF8B50028C1
S2140225E012D000F0E5F805002800F8BD3800604378
S2140225F0084BC01800F0DCF8002801D001256D4217
S2140226000134A642F2DCEFE7034B040005003C2748
S2140226101E68F6E798E1FF1F74440200F7B54369A7
S214022620C6680193364B04000D0000921E420BD082
S214022630019801F0FFFD071E06D1009B012B06D074
S214022640022B2DD0002B06D002273800FEBD20001C
S21402265000F05AF82D18002DF6DBB30404D52368D3
S214022660E26A9A4200D2E362A369AB420EDCE16AF6
S21402267022688A4200D20A002169D0180091401AC4
S214022680A84203DB206B1918A94228DC20231E432C
S2140226900023A562A36063601A4B1E40E660D4E77F
S2140226A0019801F0C4FDE268002804DA802313438F
S2140226B00127E360C9E7E16A2368994200D90B0063
S2140226C0A1695B1821695B1A920603D5A26A934236
S2140226D000DA1300834200DA0300ED18BBE7EB1AB8
S2140226E0B50701D5181AA060F00703D50099521A4B
S2140226F09A1A6260009AD118202321609E43CBE783
S21402270003001000BFCFF7FFC16802008B0705D198
S214022710212201200E4B40421A60704720230B40B4
S21402272009030AD5002B02D0806A0138F5E79369BF
S2140227300068C0181369C01AF7E7002B01D0806A38
S214022740EBE70368816900695B18181AE5E7C0467B
S21402275094E1FF1F0300032110B51A000B4219D1A2
S214022760114C1368114959189943214219D0DCB209
S214022770511C002C0BD0FF242402911C234206D0AD
S214022780FF2109040B40591E8B41D318D91C013076
S214022790081A05E001335C1E2478002CDDD1101ADD
S2140227A010BD0432DDE7C04680808080FFFEFEFE5C
S2140227B0C36870B503221E0004001640134211D0EF
S2140227C09B0611D5856A00F079F8E368094A20006D
S2140227D01340E36000F010F80022060029002000F3
S2140227E0FFF71CFF300070BD83690568ED180369AA
S2140227F0ED1AEAE7FFCFFFFF70B50400134AE3685D
S21402280005691A400168C06AE26082221A40022AFA
S21402281002D00120404270BDDB030CD5814200D2BB
S21402282001008D4209D10023094AA360E368E562EC
S21402283013402560E3600020EDE722002800491BD4
S21402284000F008F80028EED0E3E7C046FFFFF7FFE7
S214022850FFFFFEFFF7B5D5680F001400566901901A
S214022860EB0205D5102330001D4301F0E0FCA06109
S214022870104B1D420FD03000A16901F0E1FC002888
S21402288006DA80230120E26840421343E3600FE049
S214022890094B1D40E5603A003000019901F0D6FC74
S2140228A04300A2695B08FB1AD318A3610028E8D18B
S2140228B0FEBDC04610000200EFFFFDFF2022C368E7
S2140228C010B59343C3608269836A04009A420CD0AF
S2140228D0FFF792FFE268074B1A4010231343E360A8
S2140228E0A36AA3612369E3622360E368024A134092
S2140228F0E36010BDEFCFFFFFBFBFFFFFF0B51D00C7
S2140229008BB002900391039B14005A002B0003998C
S214022910520D4B40DB0FDB070693002A07D05349C4
S2140229208A4204D06B005B0D01D08B4211D1039B0F
S2140229304F495B008B4200D886E04E4A934205D14F
S2140229406B009B184C4A934200D889E000204B4902
S2140229506FE0D3180793039B620D1F0380233F0B80
S2140229605B031F43EB021343802212061A43002323
S21402297038001900089201F02BFC0023E2020490B2
S214022980059138001900150001F022FC0023009181
S21402299001930099019A049B059C5B1854410027F9
S2140229A004930594029B06001A0028003B00390097
S2140229B001F00EFC0C003B003900029A09900898C0
S2140229C001F006FC2200049C059D3B00801859413C
S2140229D0801979410A00802112196B41099C49032A
S2140229E0A7080743264C079804198B420CD22549A0
S2140229F004008C461000190080185941FD0F05434B
S214022A002A000B0064447F000021F80F8018594109
S214022A10802203001206974203D1012302009A4342
S214022A201300194A944206D81800069A24050A4347
S214022A30A1180BB0F0BD002C03DB069A134B1A4309
S214022A40069200200699F4E76A008A42F9D90949F3
S214022A508A4200D07AE780229203934200D275E738
S214022A600A4B069A00201A431100E2E7FF0700000D
S214022A70FFFFDFFF0000E0FF0000C0FF0000F87F5E
S214022A8001FCFFFF00FCFFFFFD0700000000F07FD7
S214022A90F0B587B00090019102920393019B019AD0
S214022AA05F00039B7F0D53400593002F08D04A4DCD
S214022AB0AF4205D0039B5C00640D01D0AC4207D147
S214022AC0019B464E5D00B54265D9002044494CE064
S214022AD0019B3F1BD902009B029A5C0D80231B06BA
S214022AE09C46009B2143DC0263460B43510D624623
S214022AF01D00039BDB020B431343029AD202AB4236
S214022B0002D834D1A24232D93649012650087F185B
S214022B10D907084335225908B44600235B00A94268
S214022B2006D801D1A04203D86646241A8D41334303
S214022B3024196D41212A24D0013A002AEED1A94255
S214022B4008D801D1A04205D801335A425A41049905
S214022B508A180492059A2449D20FD2078F4213D8B4
S214022B6018003F05BF18049AB91807B0F0BDE90768
S214022B708C4666466008690806430D0034001B4909
S214022B80C3E720220493C9E7002F01DB184B1A4340
S214022B9000201100E9E7039B5C00B44200D994E7E9
S214022BA0019A134380225B009203934200D28CE781
S214022BB0059B0020DB0FDB0795420BD3944203D222
S214022BC00B4A00201A43E4E7B442F9D10020A5429A
S214022BD000D17BE71900C8E7FF0700000000E0FF0E
S214022BE00000F87FFD030000FD070000FE03000062
S214022BF00000F07FF7B514001D001A008C4607008F
S214022C0026004B4007D580273F062200EB1900F02E
S214022C10DBF803B0F0BD8D4203D884420BD38D425D
S214022C2009D1802212069A180B0053409C463B009C
S214022C3037001E006A406346110D1B0D0191581A9B
S214022C405D4C5E491940A14206D163461B0300D182
S214022C50ADE000205A49DCE7884204D1002832D091
S214022C6061463800D5E78025614612036D030C03E2
S214022C70110B2A00240B224329431F2857D80C0085
S214022C80C440121B3400C44001982030C01A814050
S214022C900D003100254381407D1BAF4216D2013A1A
S214022CA0002901D04942013DC020400302425BD1C7
S214022CB05000EA0F02436800CD0F11000543294376
S214022CC0023B002910D100200021A2E70029EBD008
S214022CD0013D681C444260414942121AE4E7290E4B
S214022CE012020A432D02083B510BF8D0510C04D1B4
S214022CF0290F12010A432D01043BD10C04D1A90F5E
S214022D0092000A43AD00023B110D04D1E90F5200B6
S214022D100A436D00013B6046D90AC40FA14203D1A3
S214022D201B059918280074E70020E10771E735288B
S214022D3030D80D0020242038C540241AA140340083
S214022D407D1BAF42BF41C4407F42D21B21433606A1
S214022D5008D0FF200143013D681C444260414942BD
S214022D60121A01E00029F6D1D00209D4013B5C0513
S214022D700DD0E80F520002436D00C80F054349000C
S214022D80104C1440002907DB1B051919CAE720005E
S214022D9019053EE73D00F7E701356A426A41A41885
S214022DA0802212069142EFD101229543ECE70028D9
S214022DB000D055E74DE7C046FF070000FFF7FFFFCC
S214022DC00000F87FFFFFEFFFF0B51F0016003D0082
S214022DD085B00C0003003A000291039001964D4024
S214022DE007D58024240632003B19FFF703FF05B0FF
S214022DF0F0BD8F4204D93C000399029A019B0191CF
S214022E004149424D200D170DC61B0140A94204D16F
S214022E10220306D000203E49E9E78E4204D1002E66
S214022E206DD021001800E2E78025210312036D030E
S214022E30090B120B29432A431F2E1ED81500F540F4
S214022E402037AC46019D3F1AF540BA402A43019D01
S214022E509B18BD4061442E009A422AD901315D1C5E
S214022E608A022CD40138002E0ADA01338022120696
S214022E70964205D10122934302E0352E05D9013848
S214022E800005451829001800B1E71700203EF74054
S214022E90DB19BB42BF41019D7F42C9192027F5407D
S214022EA0BF1BBA402E001643019A150601D0FF2218
S214022EB016438A021BD55D1C6B426B41C918002E55
S214022EC001D102239D43240D4B082405E418114B1F
S214022ED062009A4207D86D08C907294323000A00F0
S214022EE01000190083E7013000220305F8E70138D5
S214022EF0002EC5DA01335A425A418918B6E7E40F62
S214022F003000E10773E7C046FFF7FFFFFF07000048
S214022F100000F87FFFFFDFFF0B00400DC9020143F0
S214022F208020000608430D4910B51C0D091BC84039
S214022F30FF2912D9E024E400404221420DD080212C
S214022F40C90508001840194207D0054C0020590050
S214022F50A14202D8D80F034BC01810BD1E040000B1
S214022F600000E0FFFFFFFF7F0B4B0A0D30B59B1AF8
S214022F70FF2B07D8400DCA020243802000061043EA
S214022F80D84030BD80220020044BD205CB189A428E
S214022F9040414042F5E7C0461E040000000010C053
S214022FA0F7B500900191009F019D38006900084323
S214022FB084460AD1590011430130002904D06046E4
S214022FC09D4201D150425041FEBD00209D42FBD1A0
S214022FD09742F9D1014B8B424041F5E70000E0FFF2
S214022FE0F7B5040018001A4F0D00BC4608430DD46E
S214022FF000205F00674508D801309D4205D30020B7
S2140230009D4202D1944280414042FEBD680000903B
S214023010009F00206745F8D858000190019F0020C5
S2140230206745F2D8009F2743874206D1019911438C
S214023030081EEAD0AB428041E6E701209D42E4D872
S21402304000209D42E1D1A24292415042DDE7C046B5
S2140230500000E0FFF7B50090019101991D000B00FA
S21402306014000020124F4E002B430CD4BE4209D847
S2140230700130A94206D80020A94203D1009B9C42F7
S21402308080414042FEBDBE42FCD86B00BB42F9D82E
S2140230900098034323433343181EF3D00120A9426A
S2140230A0F0D30020A942EDD1009BA3428041E8E77D
S2140230B00000E0FFF0B585B0009001911D00019977
S2140230C0009B140003930B000020134F4E002B436B
S2140230D00DD4BE4209D80130A94206D80020A94222
S2140230E003D12200039B9342404105B0F0BDBE428D
S2140230F0FBD86B00BB42F8D80130A942F5D303D106
S21402310000202300039AEEE7009A13432343334337
S21402311058425841E9E7C0460000E0FFC20D70B5CC
S214023120FF23150004001D404C401A4208D09D4261
S21402313006D0CE0D32001A401E4201D09A4213D15A
S214023140FF2340001B0698423FD34AD1FF23490083
S2140231501B06C918FE231B06994242D8FF20E40F1D
S214023160E407C00520431DE0AD18802200231206A6
S2140231700902000210430A43190001F029F806006A
S2140231800B1E10DA7F3DE00F190AC0070143EA055D
S214023190521880211B0609068B4207D0FD2D0ED839
S2140231A0DB0F981870BD803D4B00ECE7531C002ED9
S2140231B001D101229343FD2D01D8181CF2E7002D00
S2140231C0F0DBFF23DB051843ECE74900994202D205
S2140231D0E00FC007E6E7994203D180235B049842DA
S2140231E0BCD20148DEE7C0460000C07FF0B5C50D80
S2140231F0FF222C00030014404B40154208D0944294
S21402320006D0CE0D35001540164201D0954206D1A5
S214023210FF2544002D06AC4246D92C4838E0641BF4
S21402322080250902ED0549080202294352080139A0
S2140232302A438A422DDA7D3480253F271A26D80F64
S214023240C0012D045200531A00D513005A00531A17
S21402325000D513005A00531A00D513005A00531A09
S21402326000D513005A00531A00D513005B005A1AF1
S21402327000D51A0093061843F041BA432842E1D01B
S21402328052008A4200DB0130FD2C05D8E4052018E6
S214023290F0BD52107E34CFE7C00FC007002CF7DB1C
S2140232A0FF23DB051843F3E74A00AA42B5D80843D2
S2140232B08021400049048842AFD3D80FC0078C4211
S2140232C0E6D3AA42ECD19442A7D0E1E70000C07F41
S2140232D00A00F8B5424003000E00002A05DA8023F1
S2140232E01B06C91800F08AF8F8BD814205D980236A
S2140232F01B06D618030073404E40D90DF40DC8B213
S2140233000F1BFF2803D15A026ED03A48ECE78742D9
S21402331003D10028E8D01800E6E7802518022D061B
S2140233203602284335432A00FA40801A11D5324B1A
S214023330C018020ACB059B18000601D0181CD3E75A
S2140233402034641AA540581E002DCDD10122934385
S214023350E1E74200460017D5FE2680321012CB0562
S2140233601B180E40120601D0002EE7D12034641A34
S214023370A540581E002D02D1012293431800002EAC
S214023380B2D1C00FC007AFE7002A30D08027802610
S2140233908025CC057F047603ED03BA4207D3120AD2
S2140233A0B2420BD3AA420DD35200013910E0802755
S2140233B07F02BA4215D30839B24201D21201043949
S2140233C0AA4201D292000239802000048242EBD344
S2140233D00239C9054C408818002C00DB84E7D80F58
S2140233E0D0E742021039E7E7002FA7D18DE7002089
S2140233F07AE7C0460000C07F80000080F8B50C0067
S21402340003000A00444005D580231B06C918FFF7AF
S2140234105FFFF8BD814201D913000200DD0DFF27D0
S2140234202800D10D6E1A3840B84203D15A0205D090
S2140234301B48EEE7864203D1002E2ED0181CE8E782
S2140234408024120224061B02234314432200F24065
S2140234509E18B2420DD8134BE805F218130AC0188C
S2140234601206D6D12031491B8C40D2D1013290436C
S214023470CFE70136681CFF36C305720AD2183840F9
S214023480F60503D0FF28D9D0101CC2E72031491B0D
S2140234908C40F7D101218A43F4E7DB0FDB07CDE747
S2140234A00000C07F8000008030B5C110FF240D00F0
S2140234B02405254021420AD0E023DB0542070B43C0
S2140234C0A54209D0C82410002406191930BDC90F18
S2140234D0CB0700201900F9E719030A43F9D0014B7C
S2140234E0F7E7C0460000F87F80B582B000AF78608C
S2140234F00A00FB1C1A707B689B68032293431A001F
S2140235007B689A607B689A68FB1C1B7803210B40D9
S2140235101A437B689A60C046BD4602B080BD80B53D
S21402352082B000AF78600A00FB1C1A707B681B6AC8
S214023530032293431A007B681A627B681A6AFB1C92
S2140235401B7803210B401A437B681A62C046BD46AD
S21402355002B080BD80B582B000AF78600A00FB1C66
S2140235601A707B681B6A402293431A007B681A62B1
S2140235707B681A6AFB1C1B789B0140210B401A438E
S2140235807B681A62C046BD4602B080BD80B582B076
S21402359000AF78600A00FB1C1A707B685B6A082220
S2140235A093431A007B685A627B685A6AFB1C1B7834
S2140235B0DB0008210B401A437B685A62C046BD46B0
S2140235C002B080BD80B582B000AF786008001100FE
S2140235D0FB1C021C1A70BB1C0A1C1A70FB1C1A78F5
S2140235E07B689200D358FA1C127820218B4319006C
S2140235F07B689200D150FB1C1A787B689200D158E7
S214023600BB1C1B785B0120221340FA1C127819435C
S2140236107B689200D150C046BD4602B080BD80B5E0
S21402362082B000AF78600A00FB1C1A707B689B6849
S2140236300C2293431A007B689A607B689A68FB1C8C
S2140236401B789B000C210B401A437B689A60C0468D
S214023650BD4602B080BD80B582B000AF78600A0079
S214023660FB1C1A70FB1C1A787B689200D3588022C7
S21402367013405A1E9341DBB21800BD4602B080BD0D
S21402368080B582B000AF786008001100FB1C021CF7
S2140236901A70BB1C0A1C1A70FB1C1A787B689200F4
S2140236A0D358FA1C127840218B4319007B6892008B
S2140236B0D150FB1C1A787B689200D158BB1C1B7831
S2140236C09B0140221340FA1C127819437B68920031
S2140236D0D150C046BD4602B080BD80B582B000AFB4
S2140236E0786039603B685A787B6811001800FFF7EB
S2140236F0FBFE3B681A797B6811001800FFF70FFF84
S2140237003B68DA787B6811001800FFF723FF3B68F6
S2140237105A797B6811001800FFF738FF3B68197862
S2140237203B689A797B681800FFF74CFF3B68DA79AA
S2140237307B6811001800FFF772FF3B6819783B6838
S2140237401A7A7B681800FFF79BFF3B68DB68180055
S214023750FCF7FCFF3B681B7A012B02D10F20FCF71B
S214023760DBFFC046BD4602B080BD80B582B000AF6A
S214023770786008001100FB1C021C1A70BB1C0A1C95
S2140237801A707B68DB68102293431A007B68DA6043
S214023790FB1C1A787B689200D3581F2293431900A9
S2140237A0BB1C1B781F221340FA1C127819437B6835
S2140237B09200D150C046BD4602B080BD80B582B0F0
S2140237C000AF786008001100FB1C021C1A70BB1CBC
S2140237D00A1C1A70BB1C1B78002B0BD17B685B691A
S2140237E0FA1C1278012191400A00D2431A407B68E3
S2140237F05A610DE0BB1C1B78012B09D17B685B6903
S214023800FA1C1278012191400A001A437B685A6119
S214023810C046BD4602B080BD90B585B000AFF86028
S2140238207A600B243B190A1C1A707B681A783B19BB
S2140238301978FB681800FFF7C1FF7B681B78012B1D
S21402384007D17B685A783B191978FB68180000F094
S21402385004F8C046BD4605B090BD80B582B000AF44
S214023860786008001100FB1C021C1A70BB1C0A1CA4
S2140238701A70BB1C1B78012B0AD17B681B68FA1CCA
S2140238801278012191400A001A437B681A600EE002
S214023890BB1C1B78002B0AD17B681B68FA1C1278AB
S2140238A0012191400A00D2431A407B681A60C04642
S2140238B0BD4602B080BD80B582B000AF78600A0017
S2140238C0FB1C1A707B68DB68FA1C12780121914097
S2140238D00A001A437B68DA60C046BD4602B080BD65
S2140238E080B582B000AF786008001100FB1C021C95
S2140238F01A70BB1C0A1C1A70BB1C1B78002B2ED01D
S214023900FB1C1A787B689200D358FA1C12780221A4
S21402391019437B689200D150BB1C1B78012B0CD13B
S214023920FB1C1A787B689200D358FA1C1278012185
S21402393019437B689200D1501EE0BB1C1B78022BF9
S2140239401AD1FB1C1A787B689200D358FA1C12789C
S21402395001218B4319007B689200D1500CE0FB1CBE
S2140239601A787B689200D358FA1C127802218B438D
S21402397019007B689200D150C046BD4602B080BD99
S21402398080B582B000AF786008001100FB1C021CF4
S2140239901A70BB1C0A1C1A70FB1C1A787B689200F1
S2140239A0D358FA1C127804218B4319007B689200C4
S2140239B0D150FB1C1A787B689200D158BB1C1B782E
S2140239C09B0004221340FA1C127819437B6892006B
S2140239D0D150C046BD4602B080BD80B582B000AFB1
S2140239E078600A00FB1C1A707B68A0229B58FA1C9F
S2140239F01278012191400A00134001D0012300E011
S214023A0000231800BD4602B080BD80B582B000AF6C
S214023A1078600A00FB1C1A70FB1C1A787B689200FE
S214023A20D358FA1C12788021490419437B68920005
S214023A30D150C046BD4602B080BD80B584B000AF4E
S214023A40B9607A603B600F217B18021C1A707A6894
S214023A503B689A4205D2BA687B68D3187A181278FD
S214023A601A70C046BD4604B080BD80B584B000AFB3
S214023A70B9607A603B600F23FB18021C1A70C046BE
S214023A80BD4604B080BD80B584B000AF78603960B2
S214023A907B68FB6002E0FB680133FB60FB681B7817
S214023AA0002B04D03B685A1E3A60002BF3D1FA680A
S214023AB07B68D31A1800BD4604B080BD80B582B0BC
S214023AC000AF0200FB1D1A70FB1D1B782F2B05D9B9
S214023AD0FB1D1B78392B01D8012300E000231A1C9A
S214023AE001231340DBB21800BD4602B080BD80B58C
S214023AF084B000AF78600023FB600EE0FA68130023
S214023B009B009B185B0018007B681B68591C7A6830
S214023B1011601B78C318303BFB607B681B681B7800
S214023B201800FFF7CBFF031EE8D1FB681800BD465E
S214023B3004B080BD90B587B000AFF860B9607A6017
S214023B403B607B683B617B6B0222134024D17B6B1C
S214023B500122134020D1FB6A7B610AE07A68531C7B
S214023B607B603B68B968FC682020A0477B6901330C
S214023B707B617A693B6B9A42F0D30DE0FB6A013BAC
S214023B80FB62BA6AFB6AD31818787A68531C7B60A1
S214023B903B68B968FC68A047FB6A002BEED17B6BDA
S214023BA0022213400ED007E07A68531C7B603B6803
S214023BB0B968FC682020A0477A683B69D31A3A6B3A
S214023BC09A42F1D87B681800BD4607B090BD90B502
S214023BD089B004AFF860B9607A603B60BB6B0222C2
S214023BE0134034D17B6B002B17D0BB6B01221340E2
S214023BF013D02823FB181B78002B03D1BB6B0C2297
S214023C0013400AD07B6B013B7B6306E07B6A5A1C3F
S214023C107A623A6AD31830221A707A6A3B6B9A42F0
S214023C200AD27B6A1F2BF1D906E07B6A5A1C7A629B
S214023C303A6AD31830221A70BB6B0122134006D0A0
S214023C407A6A7B6B9A4202D27B6A1F2BEDD9BB6BD8
S214023C501022134056D0BA6B8023DB00134016D1D5
S214023C607B6A002B13D07A6A3B6B9A4203D07A6A3D
S214023C707B6B9A420BD17B6A013B7B627B6A002B91
S214023C8005D0FB6A102B02D17B6A013B7B62FB6A82
S214023C90102B0ED1BB6B202213400AD17B6A1F2B3E
S214023CA007D87B6A5A1C7A623A6AD31878221A7044
S214023CB01EE0FB6A102B0ED1BB6B202213400AD0EB
S214023CC07B6A1F2B07D87B6A5A1C7A623A6AD31819
S214023CD058221A700CE0FB6A022B09D17B6A1F2B52
S214023CE006D87B6A5A1C7A623A6AD31862221A701B
S214023CF07B6A1F2B06D87B6A5A1C7A623A6AD318EA
S214023D0030221A707B6A1F2B23D82823FB181B78B5
S214023D10002B07D07B6A5A1C7A623A6AD3182D2285
S214023D201A7016E0BB6B0422134007D07B6A5A1C3B
S214023D307A623A6AD3182B221A700AE0BB6B082200
S214023D40134006D07B6A5A1C7A623A6AD31820223B
S214023D501A703C687A68B968F868BB6B03937B6B29
S214023D6002937B6A01933B6A00932300FFF7E2FE0D
S214023D7003001800BD4605B090BD90B597B008AFD9
S214023D80F860B9607A603B6000237B63BB6C002BF3
S214023D9003D1FB6D10229343FB65FA6D8023DB0093
S214023DA0134002D0BB6C002B33D0BB6C396D1800AD
S214023DB000F02AF90B001A0033217B181A700A0049
S214023DC0BB181B78092B04D8BB181B783033DAB221
S214023DD00DE0FB6D2022134001D0412300E0612359
S214023DE03322BA1812789B18DBB20A3BDAB27B6B24
S214023DF0591C796310217918CA54396DB86C00F0D1
S214023E0003F90300BB64BB6C002B02D07B6B1F2B39
S214023E10CBD93C687A68B968F868FB6D0693BB6DC7
S214023E2005937B6D04933B6D03934C23FB181B7821
S214023E3002937B6B01931023FB1800932300FFF77A
S214023E40C6FE03001800BD460FB090BDB0B596B0D2
S214023E5008AFF860B9607A603B6000237B63BB6C96
S214023E60FA6C134303D1BB6E10229343BB66BA6E41
S214023E708023DB00134003D0BB6CFA6C13433AD0AA
S214023E80B86CF96CBA6DFB6D00F0F7F8100019000B
S214023E9033243B19021C1A702200BB181B78092B0C
S214023EA004D8BB181B783033DAB20DE0BB6E202282
S214023EB0134001D0412300E061233322BA1812785E
S214023EC09B18DBB20A3BDAB27B6B591C7963102172
S214023ED07918CA54BA6DFB6DB86CF96C00F0CDF85F
S214023EE002000B00BA64FB64BB6CFA6C134302D08C
S214023EF07B6B1F2BC4D9BB6D3D687C68B968F868BC
S214023F00BA6E06927A6E05923A6E04920393502324
S214023F10FB181B7802937B6B01931023FB1800930C
S214023F202B002200FFF753FE03001800BD460EB01A
S214023F30B0BD90B585B000AF786008001100FB1CDC
S214023F40021C1A70BB1C0A1C1A700E23FB180022D5
S214023F501A800E243B191B887A68D2180D217B180A
S214023F6012781A707B181B781800FEF7BDF8031E2D
S214023F7005D13B191A883B1901321A8003E0BB1C93
S214023F801B78002B07D00D23FA18FB1C12781B781F
S214023F909A42DED100E0C0460E23FB181B881800AA
S214023FA0BD4605B090BD80B500AFC046BD4680BDDB
S214023FB010B5FEF747FAFCF72BFA10BD10B500F065
S214023FC01EF910BD10B50400FEF7C4FB0100200068
S214023FD000F033F910BD10B5002811D080210C383E
S214023FE0490501608268002A0AD013688B4207D10D
S214023FF04368546803331B19436093688360F1E790
S21402400010BD03000B4321D4002931D00122D20770
S214024010030901E0090112099942FBD9430801E0AC
S214024020490052089942FBD900E04908401A07D3D2
S2140240305241FAD301461046704749084018F7D253
S2140240409218FAD34018014610467047CB0F00D09C
S2140240504942021000D54042534008B5FFF7D4FF4C
S2140240600CBC521000D34042002A00D549421847E1
S214024070F446002000F02EF86047F0B517001F4304
S21402408023D001264408CF073C434D08A71A2F46E3
S2140240909F4103D392185B410136F7E700240025BF
S2140240A005E05208DF073A435B0824196D41871A78
S2140240B00F469F4102D3801A99410134013EF0D146
S2140240C002460B4620462946F0BD0020002100F09D
S2140240D001F8F0BD704710B5002828D0030C12D1A5
S2140240E00004030E13D10002030F14D10001830F44
S2140240F015D18000002816DB4000C4126318420562
S2140241001000190010BD80235B04C918E9E780235C
S2140241101B04C918E8E78023DB03C918E7E78023F6
S2140241209B03C918E6E780235B03C918E5E700206E
S2140241300021E7E7C30F10B5D907002B00D0404295
S2140241408023DB05C918FFF7C6FF10BD802110B516
S214024150C905FFF7C0FF10BD00282BD0030C15D1F0
S2140241600004030E16D10002030F17D10001830FBD
S21402417018D18000002819DB400080300212521845
S214024180000601D101239A43101C704780231B05A9
S214024190C918E6E78023DB04C918E5E780239B04F9
S2140241A0C918E4E780235B04C918E3E780231B04ED
S2140241B0C918E2E70020E8E7C30F10B5D907002BBD
S2140241C000D040428023DB05C918FFF7C5FF10BDAB
S2140241D010B543435143C918040C130C5C43091928
S2140241E092B2040C544380B2434350432204240C3C
S2140241F0801861411A041B0C8018594110BD844670
S214024200043A09D3830707D109060B0A19430B0C94
S2140242101943043A02C0FCD2043203D001700130C2
S214024220013AFBD1604670470120404270470120A8
S214024230404270470120404270470120404270478A
S21402424001204042704701204042704710007047EC
S214024250000000000000F03F0000000000002440C4
S21402426000000000000059400000000000408F409F
S214024270000000000088C34000000000006AF8400A
S2140242800000000080842E4100000000D01263412E
S2140242900000000084D797410000000065CDCD41A4
S2140242A00A53656E64203078257820746F2067651F
S2140242B07420646174610A002020252E326600FF95
S2140242C06E616E00666E692D00000000666E692BD8
S2140242D000000000666E6900BA150200E2150200D0
S2140242E0E2150200CE150200E2150200E2150200F7
S2140242F0E2150200E2150200E2150200E2150200D3
S214024300E2150200A6150200E2150200921502004E
S214024310E2150200E21502007E150200EC1602000B
S214024320481702002417020048170200C2160200AD
S21402433048170200481702004817020048170200F2
S2140243404817020048170200481702001217020018
S21402435048170200481702004817020048170200D2
S2140243604817020036170200A41D0200BC1D0200F8
S214024370BC1D0200BC1D0200BC1D0200BC1D0200CA
S214024380BC1D0200BC1D0200BC1D0200BC1D0200BA
S214024390BC1D0200BC1D0200BC1D0200BC1D0200AA
S2140243A0BC1D0200BC1D0200BC1D0200BC1D02009A
S2140243B0BC1D0200BC1D0200BC1D0200BC1D02008A
S2140243C0BC1D0200BC1D0200BC1D0200BC1D02007A
S2140243D0BC1D0200BC1D0200BC1D0200BC1D02006A
S2140243E0BC1D0200BC1D0200341B0200DC1A0200C7
S2140243F0341B0200BC1D0200BC1D0200BC1D0200D4
S214024400BC1D0200BC1D0200BC1D0200BC1D020039
S214024410BC1D0200BC1D0200BC1D0200BC1D020029
S214024420BC1D0200BC1D0200BC1D0200BC1D020019
S214024430BC1D0200B8170200BC1D0200BC1D020013
S214024440BC1D0200BC1D0200BC1D0200BC1D0200F9
S214024450BC1D0200BC1D0200BC1D0200B8170200F3
S214024460AE1B0200B8170200341B0200DC1A020060
S210024470341B02000300000072007700FC
S20802447C00004001F4
S8040200D524
