S01900004D4B4C34365A345F426F6F744C6F616465722E733139B5
S113000000600020D500000043010000450100000D
S113001000000000000000000000000000000000DC
S11300200000000000000000000000004701000084
S11300300000000000000000490100004B01000026
S11300404F010000570100005F010000670100003C
S11300506F010000770100007F01000087010000AC
S11300608F010000970100009F010000A70100001C
S1130070A9090000B7010000BF010000C70100008A
S1130080CF010000D7010000DF010000E7010000FC
S1130090EF010000F7010000FF010000070200006B
S11300A00F020000170200001F02000027020000D8
S11300B02F020000370200009D11000031110000E2
S11300C0701F000080E0FF1F1800000098E0FF1F71
S11300D0E400000010B572B601F0B2F90D4B07E070
S11300E0186859681C000C349A6800F019F8230049
S11300F0094A9342F4D306E018681C00083459688E
S113010000F017F82300054A9342F5D362B601F0D4
S11301104CFEFEE7C0000000CC000000D40000004C
S113012010B5002302E010C810C104339342FAD37F
S113013010BD002302E0002204C004338B42FAD332
S11301407047FEE7FEE7FEE7FEE7FEE7FEE710B5D1
S1130150FFF7FCFF10BD10B5FFF7F8FF10BD10B599
S1130160FFF7F4FF10BD10B5FFF7F0FF10BD10B599
S1130170FFF7ECFF10BD10B5FFF7E8FF10BD10B599
S1130180FFF7E4FF10BD10B5FFF7E0FF10BD10B599
S1130190FFF7DCFF10BD10B5FFF7D8FF10BD10B599
S11301A0FFF7D4FF10BD10B5FFF7D0FF10BD10B599
S11301B0FFF7CCFF10BD10B5FFF7C8FF10BD10B599
S11301C0FFF7C4FF10BD10B5FFF7C0FF10BD10B599
S11301D0FFF7BCFF10BD10B5FFF7B8FF10BD10B599
S11301E0FFF7B4FF10BD10B5FFF7B0FF10BD10B599
S11301F0FFF7ACFF10BD10B5FFF7A8FF10BD10B599
S1130200FFF7A4FF10BD10B5FFF7A0FF10BD10B598
S1130210FFF79CFF10BD10B5FFF798FF10BD10B598
S1130220FFF794FF10BD10B5FFF790FF10BD10B598
S1130230FFF78CFF10BD10B5FFF788FF10BD10B598
S1130240FFF784FF10BD10B5FFF780FF10BDFFFF5F
S1130250FFFFFFFFFFFFFFFFFFFFFFFFFFFFFFFFAA
S1130260FFFFFFFFFFFFFFFFFFFFFFFFFFFFFFFF9A
S1130270FFFFFFFFFFFFFFFFFFFFFFFFFFFFFFFF8A
S1130280FFFFFFFFFFFFFFFFFFFFFFFFFFFFFFFF7A
S1130290FFFFFFFFFFFFFFFFFFFFFFFFFFFFFFFF6A
S11302A0FFFFFFFFFFFFFFFFFFFFFFFFFFFFFFFF5A
S11302B0FFFFFFFFFFFFFFFFFFFFFFFFFFFFFFFF4A
S11302C0FFFFFFFFFFFFFFFFFFFFFFFFFFFFFFFF3A
S11302D0FFFFFFFFFFFFFFFFFFFFFFFFFFFFFFFF2A
S11302E0FFFFFFFFFFFFFFFFFFFFFFFFFFFFFFFF1A
S11302F0FFFFFFFFFFFFFFFFFFFFFFFFFFFFFFFF0A
S1130300FFFFFFFFFFFFFFFFFFFFFFFFFFFFFFFFF9
S1130310FFFFFFFFFFFFFFFFFFFFFFFFFFFFFFFFE9
S1130320FFFFFFFFFFFFFFFFFFFFFFFFFFFFFFFFD9
S1130330FFFFFFFFFFFFFFFFFFFFFFFFFFFFFFFFC9
S1130340FFFFFFFFFFFFFFFFFFFFFFFFFFFFFFFFB9
S1130350FFFFFFFFFFFFFFFFFFFFFFFFFFFFFFFFA9
S1130360FFFFFFFFFFFFFFFFFFFFFFFFFFFFFFFF99
S1130370FFFFFFFFFFFFFFFFFFFFFFFFFFFFFFFF89
S1130380FFFFFFFFFFFFFFFFFFFFFFFFFFFFFFFF79
S1130390FFFFFFFFFFFFFFFFFFFFFFFFFFFFFFFF69
S11303A0FFFFFFFFFFFFFFFFFFFFFFFFFFFFFFFF59
S11303B0FFFFFFFFFFFFFFFFFFFFFFFFFFFFFFFF49
S11303C0FFFFFFFFFFFFFFFFFFFFFFFFFFFFFFFF39
S11303D0FFFFFFFFFFFFFFFFFFFFFFFFFFFFFFFF29
S11303E0FFFFFFFFFFFFFFFFFFFFFFFFFFFFFFFF19
S11303F0FFFFFFFFFFFFFFFFFFFFFFFFFFFFFFFF09
S1130400FFFFFFFFFFFFFFFFFFFFFFFFFEFFFFFFF9
S1130410B0B500AFA74B1B78DBB2062B00D946E181
S11304209A00A54BD3181B689F46A44B1B78DBB2DC
S1130430180001F095FB03001A00A14B1A70A04BA1
S11304401B78002B18D09E4B1B78032B14D89C4B85
S11304501B780133DAB29A4B9A70994B00225A7086
S1130460974B9A78974B1A70924B1B78DBB20133F7
S1130470DAB2904B1A701AE18E4B00221A70904B2C
S11304801B78062B02D9904B01221A70894B00224B
S11304901A700CE18A4B5B781B01DCB2874B1B782A
S11304A0DBB2180001F05CFB0300E318DAB2844B02
S11304B05A70864B1B78DBB20133DAB2834B1A7065
S11304C0824B1B78DBB2022B00D0E5E0794B1B7822
S11304D0DBB20133DAB2774B1A707C4B00221A700C
S11304E0774B5A78764B5A72D6E0754B5B681C0191
S11304F0724B1B78DBB2180001F032FB0300E218E8
S11305006F4B5A60724B1B78DBB20133DAB2704B1B
S11305101A706F4B1B78DBB21A00694B9B785B0037
S11305209A4200D0BAE0634B1B78DBB20133DAB2F3
S1130530604B1A70664B00221A70614B00221A72CB
S11305405F4B5A68634B1A60A8E05D4B1B7A1B0132
S1130550DCB25A4B1B78DBB2180001F001FB03003C
S1130560E318DAB2564B1A725B4B1B78DBB20133D9
S1130570DAB2594B1A70584B1B78DBB2022B20D1DC
S1130580554B00221A70554B1B681B024C4A127AB9
S11305909A18524B1A60524B1B78DBB20133DAB211
S11305A04F4B1A70464B5A7A454B1B7AD318DAB222
S11305B0434B5A72434B1B78DBB20133DAB2414BE3
S11305C01A70474B1B78DBB2042B05D1454B012233
S11305D01A70434B00221A703A4B1B78DBB21A0094
S11305E0374B5B78013B9A425AD1324B1B78DBB2D2
S11305F00133DAB22F4B1A7052E03B4B1B78DBB25B
S1130600002B16D12D4B1B78DBB2180001F0A8FA91
S1130610030019012A4B5A7ACBB2D318DAB2284B09
S11306205A72314B1B78DBB20133DAB22E4B1A709B
S113063038E02D4B1B78DBB2012B33D11F4B1B78D9
S1130640DBB2180001F08CFA03001A001C4B5B7A31
S1130650D318DAB21A4B5A72234B00221A70234B66
S113066001221A70134B1B78DBB20133DAB2114B3F
S11306701A7017E0114B1B78DBB20A2B14D10D4B07
S113068000221A7010E00D4B1B78DBB2532B0DD1F6
S1130690084B01221A7009E0C04608E0C04606E093
S11306A0C04604E0C04602E0C04600E0C046C04682
S11306B0BD46B0BD70E1FF1FC81E00006CE1FF1F06
S11306C0A0E0FF1F76E1FF1F78E1FF1F71E1FF1F2C
S11306D072E1FF1F98E0FF1F73E1FF1F9CE0FF1F03
S11306E074E1FF1F77E1FF1F75E1FF1F79E1FF1F31
S11306F080B500AF224B1B78DBB2522B0CD00FDC41
S1130700452B05D04C2B0BD11E4B01221A7033E024
S11307101C4B03221A702FE01A4B05221A702BE08F
S1130720184B1B78DBB2002B06D1164B07221A702C
S1130730154B01221A701FE0114B1B78DBB2312BD1
S113074004D00F4B1B78DBB2322B0ED10C4B1B7831
S1130750DBB2313BDAB20D4B1A700A4B1B78DBB2B9
S11307600133DAB2074B1A7006E0064B07221A70FF
S1130770054B02221A70FFE7C046BD4680BDC04645
S11307806CE1FF1F6FE1FF1F6EE1FF1F6DE1FF1FB3
S113079080B582B000AF064B7B60C0467B685A1EB2
S11307A07A60002BFAD1C046C046BD4602B080BD77
S11307B0400D030080B500AF01F01AFA00F008FA0A
S11307C0031E01D100F00CF8044B1B68DBB21800C7
S11307D000F004F9C046BD4680BDC046FCFF0300DE
S11307E080B582B000AF674B1B78DBB2180000F015
S11307F05FF900F0ADFD634B1B78DBB2072B00D132
S1130800A9E000DDBAE0062B00D191E000DDB5E0FF
S1130810022B02D0042B66D0B0E05B4B1B78DBB21A
S1130820002B23D0584B00221A70584B1B681B68AE
S1130830013306D0564B02221A70524B07221A700B
S113084014E0544B1B68180001F0B7F90200514B37
S11308501A60504B1A684D4B1B681900100000F0C9
S113086063FA4A4B1B681A1D484B1A604A4B1B78A3
S1130870DBB2002B1FD0484B00221A700DE0474B0F
S11308805A7A464B5B68DBB2D318DAB2434B5A72DE
S1130890424B5B681A0A414B5A60404B5B68002B21
S11308A0EDD13E4B5B7AFF2B05D0364B07221A70F5
S11308B0374B03221A703A4B1B78DBB2002B5FD004
S11308C0374B00221A7000F05DFD2E4B1B78DBB213
S11308D0180000F0EDF8FFF75BFF00F039FD294B3D
S11308E000221A704CE02F4B1B78DBB21A00322323
S11308F0534380337B6007E07B68DBB2180000F071
S11309005DFA7B6801337B60264B1B78DBB21A00EF
S113091032235343B2337A689A42EDD3194B1B788E
S1130920DBB2180000F0C4F8164B00221A7028E05D
S11309301C4B1B78DBB2180000F0A4F8114B1B7899
S1130940DBB2180000F0B4F8164B1B78DBB21800C9
S113095000F044F815E000F015FD0D4B1B78DBB2F8
S1130960180000F00BF9FFF713FF00F0F1FC054B42
S113097000221A70064B00221A7002E0C0463AE7C1
S1130980C04638E76FE1FF1F77E1FF1F98E0FF1FC4
S11309906EE1FF1F9CE0FF1F79E1FF1FA0E0FF1F36
S11309A078E1FF1F6DE1FF1F80B500AF084BDB79D5
S11309B0DAB2084B1A70084B1B78DBB2022B02D157
S11309C0FFF726FD01E0FFF793FEC046BD4680BD5C
S11309D000A006406CE1FF1F6FE1FF1F80B586B0E9
S11309E000AF0200FB1D1A7072B6C04601F00BF98D
S11309F0FB1D1A7813009B009B189A009B18DB02BE
S1130A001E4A944663441B687B61FB1D1A781300DD
S1130A109B009B189A009B18DB021A00184B80213C
S1130A2089028C4662449A60FB1D1A7813009B006D
S1130A309B189A009B18DB0280229202944663441E
S1130A401B68FB60FB6883F30888C046FB1D1A78AB
S1130A5013009B009B189A009B18DB0280229202D1
S1130A60944663441B683B613B6983F30988C04631
S1130A707B699847C046BD4606B080BD04000200AD
S1130A8000ED00E080B582B000AF0200FB1D1A70DB
S1130A90FF2000F093F9FB1D1B78044A1100180095
S1130AA000F042F9C046BD4602B080BDFCFF030021
S1130AB080B584B000AF0200FB1D1A700023FB60F8
S1130AC0FB1D1B78062B11D013DC042B08D010DC83
S1130AD0002B02D0022B06D00BE00A4BFB6008E08F
S1130AE0094BFB6005E0094BFB6002E0084BFB602F
S1130AF0C046FB680A21180000F05CFCC046BD46F5
S1130B0004B080BDE41E0000F01E0000FC1E0000C6
S1130B10081F000090B585B000AF08243B190A4AAD
S1130B2003CA03C33B00094A03CA03C33B19084869
S1130B301A000C2100F0C8F93B00180001F086F8F7
S1130B40C046BD4605B090BD141F00001C1F000028
S1130B5000B0044080B500AF064B0C21180001F032
S1130B60BEF8054B0C21180000F070FAC046BD46D3
S1130B7080BDC04680F00F4000B0044080B584B012
S1130B8000AF0200FB1D1A700023FB60FB1D1B78E5
S1130B90032B05D00DDC012B05D0022B06D008E079
S1130BA0084BFB6005E0084BFB6002E0074BFB6071
S1130BB0C046FB680C21180000F0FCFBC046BD4693
S1130BC004B080BD241F0000341F0000441F000037
S1130BD080B500AF064B0C21180001F01FF8031E6E
S1130BE001D1002300E001231800BD4680BDC046AA
S1130BF080F00F4080B500AF2F4B5B78DBB22E4AFC
S1130C0001218B43DBB253702B4B5B78DBB22A4A56
S1130C1001210B43DBB25370274B1B7ADBB2264A0C
S1130C200E218B43DBB21372244A254BD35823493C
S1130C301B011B09224A8B50204A214BD3581F49C0
S1130C40204A13401E4A8B501B4B1B78DBB21A4AB6
S1130C503F210B40DBB21370174B1B78DBB2164AF3
S1130C6040210B43DBB21370144A174BD35813497A
S1130C708022D2001343144A8B50104A134BD3588A
S1130C800E49A02212011343104A8B500B4A104BF9
S1130C90D3580A49C022120513430D4A8B50064B00
S1130CA01B78DBB2044A02210B43DBB2137000F061
S1130CB0D5FBC046BD4680BD0040064000700440E0
S1130CC044100000FFFFF8FF34100000381000004B
S1130CD00410000080B500AF0D4A0E4BD3580C49E8
S1130CE00D4A13400B4A8B50094A0C4BD358084900
S1130CF00B4A1340094A8B500A4B1B78DBB2094A52
S1130D0002218B43DBB21370C046BD4680BDC04692
S1130D100070044034100000FFFBFFFF3810000097
S1130D20FFF5FFFF0040064080B582B000AF786059
S1130D303960C046204B1B78DBB25BB2002BF9DA7A
S1130D401D4B1B78DBB21A002023134006D11A4B2B
S1130D501B78DBB21A001023134002D0164B30224A
S1130D601A70154B0622DA713B681A0C124BD2B278
S1130D709A713B681A0A104BD2B25A710E4B3A68F8
S1130D80D2B21A710C4B7A68D2B21A727B681A0A00
S1130D90094BD2B25A727B681A0C074BD2B29A72C0
S1130DA07B681A0E044BD2B2DA72034B80221A709B
S1130DB0C046BD4602B080BD0000024080B584B08C
S1130DC000AF0200FB1D1A70FB1D1B789B02FB6029
S1130DD0C046174B1B78DBB25BB2002BF9DA144B1D
S1130DE01B78DBB21A002023134006D1104B1B786A
S1130DF0DBB21A001023134002D00D4B30221A70BC
S1130E000B4B0922DA71FB681A0C094BD2B29A71A6
S1130E10FB681A0A064BD2B25A71054BFA68D2B271
S1130E201A71034B80221A70C046BD4604B080BDBF
S1130E300000024080B584B000AF78600F23FB1837
S1130E4001221A700E23FB1800221A7013E00E23DD
S1130E50FB181A780E4B9200D3587A689A4204D140
S1130E600F23FB1800221A700AE00E217B181A784F
S1130E707B1801321A700E23FB181B78042BE6D959
S1130E800F23FB181B781800BD4604B080BDC04674
S1130E9080E0FF1F80B582B000AF0200FB1D1A7016
S1130EA0FB1D1B787F2B09D8FB1D1B781A001F2301
S1130EB01A40044B012191400A001A60C046BD4605
S1130EC002B080BD00E100E080B586B000AFF860FC
S1130ED07A600B23FB180A1C1A701723FB180022D4
S1130EE01A70FB68180000F0F3F8031E01D1032305
S1130EF099E07B68002B03D11723FB1801221A7099
S1130F000B23FB181B781F2B03D91723FB18022272
S1130F101A701723FB181B78002B00D080E00B20DD
S1130F203B181A78FB689200D3583A181278404953
S1130F301940FB689200D1503B181A78FB68920064
S1130F40D1587B681B781A02E023DB0013403A185F
S1130F5012781943FB689200D1503B181A78FB6849
S1130F609200D3583A18127802218B431900FB6877
S1130F709200D1503B181A78FB689200D3583A1863
S1130F80127801218B431900FB689200D1503B1861
S1130F901A78FB689200D3587A68527811003A188C
S1130FA012781943FB689200D1503B181A78FB68F9
S1130FB09200D3583A1812781E491940FB689200DF
S1130FC0D1503B181A78FB689200D1587B689B7803
S1130FD01A04F0231B0313403A1812781943FB68D0
S1130FE09200D1507B689B78002B19D0FB68124A81
S1130FF0934206D11E20FFF74DFF7B685A680F4BC2
S11310001A60FB680E4A934203D0FB680D4A934270
S113101006D11F20FFF73EFF7B685A680A4B1A600F
S11310201723FB181B781800BD4606B080BDC046C8
S1131030FFF8FFFFFFFFF0FF00900440B0E0FF1F48
S113104000B0044000C00440ACE0FF1F80B582B093
S113105000AF78600A00FB1C1A70FB1C1A787B68CE
S11310609200D358FA1C1278174919437B689200EE
S1131070D150FB1C1A787B689200D358FA1C127862
S113108002218B4319007B689200D150FB1C1A7813
S11310907B689200D358FA1C127801218B43190003
S11310A07B689200D150FB1C1A787B689200D3585D
S11310B0FA1C1278054919407B689200D150C04649
S11310C0BD4602B080BDC046FFF8FFFFFFFFF0FF42
S11310D080B584B000AF78600F23FB1800221A702B
S11310E00E23FB1800221A7013E00E23FB181A7843
S11310F00E4B9200D3587A689A4204D10F23FB18FE
S113110001221A700AE00E217B181A787B1801322A
S11311101A700E23FB181B78042BE6D90F23FB1837
S11311201B781800BD4604B080BDC046541F0000A3
S113113090B583B000AFFC1D154B180000F0FCFD0A
S113114003002370FB1D1B78202B07D0FB1D1B788D
S11311500F4A1900100000F0D8FD0DE0FC1D0D4BE6
S1131160180000F0E9FD03002370FB1D1B78094AF9
S11311701900100000F0C9FD074B1B68002B02D0BA
S1131180054B1B689847C046BD4603B090BDC0469A
S113119000B0044000C00440ACE0FF1F90B583B031
S11311A000AFFC1D0B4B180000F0C6FD03002370BC
S11311B0FB1D1B78084A1900100000F0A6FD074B20
S11311C01B68002B02D0054B1B689847C046BD46E0
S11311D003B090BD0090044000B00440B0E0FF1F95
S11311E080B582B000AF0200FB1D1A70FB1D1B7896
S11311F07F2B09D8FB1D1B781A001F231A40044BB0
S1131200012191400A001A60C046BD4602B080BD6B
S113121000E100E080B582B000AF0200FB1D1A704F
S1131220FB1D1B787F2B10D8FB1D1B781A001F2376
S11312301340084901229A40130080228B50BFF3C7
S11312404F8FC046BFF36F8FC046C046BD4602B045
S113125080BDC04600E100E080B584B000AF3B1D16
S1131260180008231A00002100F0A5FD3B1D0222EE
S11312701A703B1D03225A703B1D25481A00012198
S1131280FFF722FE3B1D22481A000221FFF71CFE35
S1131290204B1B78DBB21F4A1F218B43DBB2137038
S11312A01C4B29225A701B4B9B7ADBB2FB60FB68F8
S11312B01F229343FB60FB6809221343FB60154B19
S11312C0FA68D2B29A72134B9B7ADBB2114A20218C
S11312D08B43DBB293720F4B9B78DBB20D4A102128
S11312E08B43DBB293700B4B9B78DBB2094A022130
S11312F08B43DBB29370074B1B78DBB2054A20218A
S11313008B43DBB21370C046BD4604B080BDC046FB
S11313100090044000A0064080B500AF0C20FFF709
S113132079FF00F02FF8094BDB78DBB2074A08217C
S11313308B43DBB2D370054B1B78DBB2034A1F210E
S11313408B43DBB21370C046BD4680BD00A006408F
S113135080B500AF0A4BDB78DBB2094A20210B438E
S1131360DBB2D3700C20FFF73BFF054BDB78DBB21D
S1131370034A04210B43DBB2D370C046BD4680BD93
S113138000A0064080B500AF094BDB78DBB2084A09
S113139020218B43DBB2D370054BDB78DBB2044AEC
S11313A004218B43DBB2D370C046BD4680BDC0462A
S11313B000A0064080B584B000AF78600A00FB1C32
S11313C01A701E4BDB78DBB21C4A08210B43DBB2DC
S11313D0D3700F23FB1800221A7013E0C046174B7A
S11313E01B79DBB25BB2002BF9DA0F217B181B7877
S11313F07A68D318114A1B78D3717B181A787B1832
S113140001321A700F23FA18FB1C12781B789A42C7
S1131410E4D3C046094B1B79DBB21A0040231340C6
S1131420F8D0064BDB78DBB2044A08218B43DBB2ED
S1131430D370C046BD4604B080BDC04600A006407F
S113144080B500AF044A88235B010021D15000F02D
S1131450A7FCC046BD4680BD0070044080B582B084
S113146000AF894B1B78DBB21A00C023134000D0B5
S1131470C3E0854B5B79DBB21A004023134000D0F4
S113148099E0814B1B78DBB21A00042313403AD154
S11314907E4B7B607C4B5B78DBB21A0030231340BD
S11314A01ED0794B1B78DBB21A0038231340302B43
S11314B006D0382B09D1BB1CC022D2001A8019E0F7
S11314C0BB1CA022D2001A8014E06F4B1B78DBB245
S11314D0DB080722134020229A40BB1C1A8009E033
S11314E0694B1B78DBB2DB080722134001229A40C8
S11314F0BB1C1A80BB1C1B881900786800F081FC97
S113150003007B6002E080231B027B605E4BDB7880
S1131510DBB21A00E0231340E02B47D000D99DE052
S1131520C02B3ED000D999E0A02B34D000D995E04F
S1131530802B2AD000D991E0602B1FD000D98DE0F8
S1131540402B14D000D989E0002B02D0202B07D0E7
S113155084E07A6813009B009B18DB017B607EE0CB
S11315607A6813009B009B181B027B6077E07A6803
S113157013001B019B1ADB017B6070E07A68130087
S11315809B009B185B027B6069E07B68B72292003A
S113159053437B6063E07B68B722D20053437B6094
S11315A05DE07B683A4A53437B6058E07B68394A84
S11315B053437B6053E0344B1B79DBB21A001F2387
S11315C013409AB2BB1C01321A80BB1C1B88190041
S11315D02E4800F016FC03007B602B4B5B79DBB2DA
S11315E01A001F2313409AB2BB1C18321A80BB1C6A
S11315F01A887B6853437B6031E0234B1B78DBB252
S11316001A00C0231340402B1DD11F4B5B78DBB263
S11316101A000123134003D180231B027B601EE0C8
S1131620194B1B7ADBB25B080722134001229A4054
S1131630BB1C1A80BB1C1B881900174800F0E1FB77
S113164003007B600BE0104B1B78DBB21A00C02355
S11316501340802B13D10D4B7B6000E0C0460F4A32
S11316600F4BD3581B0F0F22134001331900786816
S113167000F0C7FB03001A000A4B1A6000E0C046E2
S1131680BD4602B080BDC0460040064000127A004C
S113169095080000710B000000093D000070044033
S11316A04410000094E0FF1F70B5184C1849220044
S11316B0002000F05DF8802380225B0000212000E0
S11316C0D20000F02FF8134C134D22002900012002
S11316D000F04EF8802380225B0000212000D2001D
S11316E000F020F80D4B1B68022B0DDD0C4C29007B
S11316F02200022000F03CF88023802200212000F8
S11317005B00D20000F00EF870BDC046B8E0FF1FC9
S11317106C1F0000F4E0FF1F6E1F0000681F000034
S113172030E1FF1FF0B5C56804000120AE070CD0FE
S113173080208000824213D08020C000824205D0E5
S11317408020400082420BD0FF38F0BD21000123ED
S113175024311543002021612160E361E560F4E751
S1131760024F5E1E0120BE42F3D9EEE7FEFFFF00EA
S1131770F7B50D0001901000140000F033F82B7839
S1131780722B1CD0772B1DD0612B26D1144A593BC8
S11317900220691C032784460426012508782B2887
S11317A013D0622816D0E260019A62611B0704D547
S11317B002220021200000F063F82000FEBD002377
S11317C00122E5E704230222E2E760463A430343A9
S11317D00131E3E732432B43FAE70024EDE7C04647
S11317E002800000F0B5C56804004769066989B045
S11317F0AB0720D02B0716D400F022F8380000F0F5
S11318004FFB2B0502D5300000F0E2FA0B4BAD0D77
S1131810AD059D4207D120226846216A00F04FFBA6
S1131820684600F0CCFA3C220021200000F0C3FA04
S1131830002009B0F0BD01204042FAE7000080AD6D
S1131840F8B5002812D000F0E5F805002800F8BD2E
S113185038006043084BC01800F0DCF8002801D0C1
S113186001256D420134A642F2DCEFE7034B04008C
S113187005003C271E68F6E7B8E0FF1F681F00005C
S1131880F7B54369C6680193364B04000D00009216
S11318901E420BD0019800F009FB071E06D1009BE5
S11318A0012B06D0022B2DD0002B06D002273800A6
S11318B0FEBD200000F05AF82D18002DF6DBB3040D
S11318C004D52368E26A9A4200D2E362A369AB4278
S11318D00EDCE16A22688A4200D20A002169D0182B
S11318E00091401AA84203DB206B1918A94228DC96
S11318F020231E430023A562A36063601A4B1E408D
S1131900E660D4E7019800F0CEFAE268002804DA31
S1131910802313430127E360C9E7E16A23689942FE
S113192000D90B00A1695B1821695B1A920603D5E3
S1131930A26A934200DA1300834200DA0300ED182E
S1131940BBE7EB1AB50701D5181AA060F00703D559
S11319500099521A9A1A6260009AD11820232160C1
S11319609E43CBE703001000BFCFF7FFC16802001E
S11319708B0705D1212201200E4B40421A6070478B
S113198020230B4009030AD5002B02D0806A0138BA
S1131990F5E793690068C0181369C01AF7E7002BCC
S11319A001D0806AEBE70368816900695B18181A43
S11319B0E5E7C046B4E0FF1F0300032110B51A0099
S11319C00B4219D1114C13681149591899432142FA
S11319D019D0DCB2511C002C0BD0FF242402911C22
S11319E0234206D0FF2109040B40591E8B41D31812
S11319F0D91C0130081A05E001335C1E2478002C40
S1131A00DDD1101A10BD0432DDE7C046808080802D
S1131A10FFFEFEFEC36870B503221E0004001640DC
S1131A20134211D09B0611D5856A00F079F8E3685A
S1131A30094A20001340E36000F010F80022060079
S1131A4029002000FFF71CFF300070BD8369056882
S1131A50ED180369ED1AEAE7FFCFFFFF70B5040044
S1131A60134AE36805691A400168C06AE260822289
S1131A701A40022A02D00120404270BDDB030CD57B
S1131A80814200D201008D4209D10023094AA3609A
S1131A90E368E56213402560E3600020EDE722007F
S1131AA02800491B00F008F80028EED0E3E7C04600
S1131AB0FFFFF7FFFFFFFEFFF7B5D5680F00140027
S1131AC056690190EB0205D5102330001D4300F048
S1131AD0EAF9A061104B1D420FD03000A16900F05B
S1131AE0EBF9002806DA80230120E2684042134320
S1131AF0E3600FE0094B1D40E5603A0030000199B6
S1131B0000F0E0F94300A2695B08FB1AD318A36153
S1131B100028E8D1FEBDC04610000200EFFFFDFF23
S1131B202022C36810B59343C3608269836A0400AA
S1131B309A420CD0FFF792FFE268074B1A40102339
S1131B401343E360A36AA3612369E3622360E36848
S1131B50024A1340E36010BDEFCFFFFFBFBFFFFF9A
S1131B6080B584B000AF0200FB1D1A700F217B18F2
S1131B7000221A70FB1D1B782F2B09D9FB1D1B7823
S1131B80392B05D87B18FA1D1278303A1A700DE0FB
S1131B90FB1D1B78402B09D9FB1D1B78462B05D850
S1131BA00F23FB18FA1D1278373A1A700F23FB180B
S1131BB01B781800BD4604B080BD80B584B000AF6A
S1131BC078607B681A0E7B681902FF231B040B40A4
S1131BD01A437B68190AFF231B020B401A437B68D4
S1131BE01B061343FB60FB681800BD4604B080BDB0
S1131BF080B500AFFEF7FEFFFEF78CFFFFF72CFB6E
S1131C00C046BD4680BD80B500AFFFF785FBFEF73B
S1131C10A1FFFFF75FF8C046BD4680BD80B582B026
S1131C2000AF78600A00FB1C1A707B681B69FA1C01
S1131C301278012191400A001A40FB1C1B78DA40FB
S1131C401300DBB21800BD4602B080BD80B584B07D
S1131C5000AF78600F23FB1800221A707B68002BFA
S1131C6001D1012337E07B681B681800FFF7E2F815
S1131C700300012B01D103232DE07B681B791F2B6B
S1131C8003D90F23FB1802221A700F23FB181B78A9
S1131C90002B1DD17B681B685A697B681B7919006E
S1131CA001238B40D9437B681B680A405A617B68D7
S1131CB05B79012B0CD17B681B6859697B681B79A4
S1131CC01A00012393401A007B681B680A435A6177
S1131CD00F23FB181B781800BD4604B080BD80B5E7
S1131CE082B000AF78600A00FB1C1A707B685B69E5
S1131CF0FA1C1278012191400A00D2431A407B68F1
S1131D005A61C046BD4602B080BD80B582B000AF06
S1131D1078600A00FB1C1A707B68A0229A58FB1C8E
S1131D201B78012199400B001A437B68A0215A506B
S1131D30C046BD4602B080BD80B584B000AF7860B7
S1131D400F23FB1820221A700E23FB1800221A708E
S1131D501AE07B68A0229A580E203B181B780121B8
S1131D6099400B0013437A68A0215350002B05D0EF
S1131D700F23FB183A1812781A700AE00E217B1808
S1131D801A787B1801321A700E23FB181B781F2B4C
S1131D90DFD90F23FB181B781800BD4604B080BDA3
S1131DA080B500AFC046BD4680BD10B5FFF77CFCD2
S1131DB0FEF700FD10BD10B500F05DF810BD10B5C4
S1131DC00400FFF7F9FD0100200000F072F810BDD7
S1131DD010B5002811D080210C38490501608268B3
S1131DE0002A0AD013688B4207D14368546803332E
S1131DF01B19436093688360F1E710BD03000B4334
S1131E0021D4002931D00122D207030901E00901BC
S1131E1012099942FBD9430801E04900520899424A
S1131E20FBD900E04908401A07D35241FAD30146CE
S1131E301046704749084018F7D29218FAD3401850
S1131E40014610467047CB0F00D04942021000D51E
S1131E504042534008B5FFF7D4FF0CBC521000D3E6
S1131E604042002A00D549421847F446002000F0B9
S1131E7001F8604770478446043A09D3830707D1C1
S1131E8009060B0A19430B0C1943043A02C0FCD28D
S1131E90043203D001700130013AFBD1604670472F
S1131EA001204042704701204042704701204042D7
S1131EB07047012040427047012040427047012092
S1131EC04042704710007047860600002A04000054
S1131ED094040000EA0400004A050000FA0500002A
S1131EE074060000424F4F54204D4F44453A0000C1
S1131EF0455241534520444F4E4500004C4F414408
S1131F0020444F4E45200000535441525420415028
S1131F10502000FF01030A000000000080F00F4081
S1131F200C000000434845434B53554D2045525245
S1131F3000000000434D4420455252202020202020
S1131F40000000004649524D42414E4B204552523A
S1131F5000FFFFFF0090044000A0044000B00440D4
S1131F6000C0044000D00440030000007200770069
S1131F7000F00F4040F00F4080F00F40C0F00F40E1
S10B1F8000F10F4000004001D4
S90300D527
